{
  "contractName": "BalanceManagement",
  "abi": [
    {
      "constant": false,
      "inputs": [
        {
          "name": "_symbolName",
          "type": "string"
        },
        {
          "name": "_amount",
          "type": "uint256"
        }
      ],
      "name": "depositToken",
      "outputs": [],
      "payable": true,
      "stateMutability": "payable",
      "type": "function"
    },
    {
      "constant": false,
      "inputs": [
        {
          "name": "amountInWei",
          "type": "uint256"
        }
      ],
      "name": "withdrawEther",
      "outputs": [],
      "payable": false,
      "stateMutability": "nonpayable",
      "type": "function"
    },
    {
      "constant": false,
      "inputs": [],
      "name": "depositEther",
      "outputs": [],
      "payable": true,
      "stateMutability": "payable",
      "type": "function"
    },
    {
      "constant": false,
      "inputs": [
        {
          "name": "_symbolName",
          "type": "string"
        },
        {
          "name": "_amount",
          "type": "uint256"
        }
      ],
      "name": "withdrawToken",
      "outputs": [],
      "payable": false,
      "stateMutability": "nonpayable",
      "type": "function"
    },
    {
      "anonymous": false,
      "inputs": [
        {
          "indexed": true,
          "name": "_from",
          "type": "address"
        },
        {
          "indexed": false,
          "name": "_amount",
          "type": "uint256"
        },
        {
          "indexed": false,
          "name": "_timestamp",
          "type": "uint256"
        }
      ],
      "name": "EtherReceived",
      "type": "event"
    },
    {
      "anonymous": false,
      "inputs": [
        {
          "indexed": true,
          "name": "_to",
          "type": "address"
        },
        {
          "indexed": false,
          "name": "_amount",
          "type": "uint256"
        },
        {
          "indexed": false,
          "name": "_timestamp",
          "type": "uint256"
        }
      ],
      "name": "EtherWithdrawn",
      "type": "event"
    },
    {
      "anonymous": false,
      "inputs": [
        {
          "indexed": true,
          "name": "_from",
          "type": "address"
        },
        {
          "indexed": true,
          "name": "_symbolIndex",
          "type": "uint256"
        },
        {
          "indexed": false,
          "name": "_amount",
          "type": "uint256"
        },
        {
          "indexed": false,
          "name": "_timestamp",
          "type": "uint256"
        }
      ],
      "name": "TokenReceived",
      "type": "event"
    },
    {
      "anonymous": false,
      "inputs": [
        {
          "indexed": true,
          "name": "_to",
          "type": "address"
        },
        {
          "indexed": true,
          "name": "_symbolIndex",
          "type": "uint256"
        },
        {
          "indexed": false,
          "name": "_amount",
          "type": "uint256"
        },
        {
          "indexed": false,
          "name": "_timestamp",
          "type": "uint256"
        }
      ],
      "name": "TokenWithdrawn",
      "type": "event"
    }
  ],
  "bytecode": "0x6060604052341561000f57600080fd5b6114e38061001e6000396000f300606060405260043610610062576000357c0100000000000000000000000000000000000000000000000000000000900463ffffffff16806333ad57e4146100675780633bed33ce146100c257806398ea5fca146100e5578063c97a413a146100ef575b600080fd5b6100c0600480803590602001908201803590602001908080601f01602080910402602001604051908101604052809392919081815260200183838082843782019150505050505091908035906020019091905050610155565b005b34156100cd57600080fd5b6100e3600480803590602001909190505061063b565b005b6100ed61076d565b005b34156100fa57600080fd5b610153600480803590602001908201803590602001908080601f0160208091040260200160405190810160405280939291908181526020018383808284378201915050505050509190803590602001909190505061089e565b005b600080600080610163610cf8565b604051809103906000f080151561017957600080fd5b93508373ffffffffffffffffffffffffffffffffffffffff166367fee8b4876000604051602001526040518263ffffffff167c01000000000000000000000000000000000000000000000000000000000281526004018080602001828103825283818151815260200191508051906020019080838360005b8381101561020c5780820151818401526020810190506101f1565b50505050905090810190601f1680156102395780820380516001836020036101000a031916815260200191505b5092505050602060405180830381600087803b151561025757600080fd5b6102c65a03f1151561026857600080fd5b5050506040518051905092508373ffffffffffffffffffffffffffffffffffffffff1663c4091236876000604051602001526040518263ffffffff167c01000000000000000000000000000000000000000000000000000000000281526004018080602001828103825283818151815260200191508051906020019080838360005b838110156103055780820151818401526020810190506102ea565b50505050905090810190601f1680156103325780820380516001836020036101000a031916815260200191505b5092505050602060405180830381600087803b151561035057600080fd5b6102c65a03f1151561036157600080fd5b505050604051805190509150600073ffffffffffffffffffffffffffffffffffffffff168273ffffffffffffffffffffffffffffffffffffffff16141515156103a957600080fd5b819050600115158173ffffffffffffffffffffffffffffffffffffffff166323b872dd3330896000604051602001526040518463ffffffff167c0100000000000000000000000000000000000000000000000000000000028152600401808473ffffffffffffffffffffffffffffffffffffffff1673ffffffffffffffffffffffffffffffffffffffff1681526020018373ffffffffffffffffffffffffffffffffffffffff1673ffffffffffffffffffffffffffffffffffffffff1681526020018281526020019350505050602060405180830381600087803b151561048f57600080fd5b6102c65a03f115156104a057600080fd5b5050506040518051905015151415156104b857600080fd5b600160003373ffffffffffffffffffffffffffffffffffffffff1673ffffffffffffffffffffffffffffffffffffffff16815260200190815260200160002060008460ff1660ff1681526020019081526020016000205485600160003373ffffffffffffffffffffffffffffffffffffffff1673ffffffffffffffffffffffffffffffffffffffff16815260200190815260200160002060008660ff1660ff16815260200190815260200160002054011015151561057557600080fd5b84600160003373ffffffffffffffffffffffffffffffffffffffff1673ffffffffffffffffffffffffffffffffffffffff16815260200190815260200160002060008560ff1660ff168152602001908152602001600020600082825401925050819055508260ff163373ffffffffffffffffffffffffffffffffffffffff167fdef422a44f208b3108bd6fee4f92da9332641cdc3e5885e36ffc8b72d5498dc18742604051808381526020018281526020019250505060405180910390a3505050505050565b806000803373ffffffffffffffffffffffffffffffffffffffff1673ffffffffffffffffffffffffffffffffffffffff168152602001908152602001600020541015151561068857600080fd5b346000803373ffffffffffffffffffffffffffffffffffffffff1673ffffffffffffffffffffffffffffffffffffffff168152602001908152602001600020600082825403925050819055503373ffffffffffffffffffffffffffffffffffffffff166108fc829081150290604051600060405180830381858888f19350505050151561071457600080fd5b3373ffffffffffffffffffffffffffffffffffffffff167fd5ca65e1ec4f4864fea7b9c5cb1ec3087a0dbf9c74641db3f6458edf445c40513442604051808381526020018281526020019250505060405180910390a250565b6000803373ffffffffffffffffffffffffffffffffffffffff1673ffffffffffffffffffffffffffffffffffffffff16815260200190815260200160002054346000803373ffffffffffffffffffffffffffffffffffffffff1673ffffffffffffffffffffffffffffffffffffffff1681526020019081526020016000205401101515156107fa57600080fd5b346000803373ffffffffffffffffffffffffffffffffffffffff1673ffffffffffffffffffffffffffffffffffffffff168152602001908152602001600020600082825401925050819055503373ffffffffffffffffffffffffffffffffffffffff167f1d57945c1033a96907a78f6e0ebf6a03815725dac25f33cc806558670344ac883442604051808381526020018281526020019250505060405180910390a2565b6000806000806108ac610cf8565b604051809103906000f08015156108c257600080fd5b93508373ffffffffffffffffffffffffffffffffffffffff166367fee8b4876000604051602001526040518263ffffffff167c01000000000000000000000000000000000000000000000000000000000281526004018080602001828103825283818151815260200191508051906020019080838360005b8381101561095557808201518184015260208101905061093a565b50505050905090810190601f1680156109825780820380516001836020036101000a031916815260200191505b5092505050602060405180830381600087803b15156109a057600080fd5b6102c65a03f115156109b157600080fd5b5050506040518051905092508373ffffffffffffffffffffffffffffffffffffffff1663c4091236876000604051602001526040518263ffffffff167c01000000000000000000000000000000000000000000000000000000000281526004018080602001828103825283818151815260200191508051906020019080838360005b83811015610a4e578082015181840152602081019050610a33565b50505050905090810190601f168015610a7b5780820380516001836020036101000a031916815260200191505b5092505050602060405180830381600087803b1515610a9957600080fd5b6102c65a03f11515610aaa57600080fd5b505050604051805190509150600073ffffffffffffffffffffffffffffffffffffffff168273ffffffffffffffffffffffffffffffffffffffff1614151515610af257600080fd5b84600160003373ffffffffffffffffffffffffffffffffffffffff1673ffffffffffffffffffffffffffffffffffffffff16815260200190815260200160002060008560ff1660ff1681526020019081526020016000205410151515610b5757600080fd5b84600160003373ffffffffffffffffffffffffffffffffffffffff1673ffffffffffffffffffffffffffffffffffffffff16815260200190815260200160002060008560ff1660ff16815260200190815260200160002060008282540392505081905550819050600115158173ffffffffffffffffffffffffffffffffffffffff1663a9059cbb33886000604051602001526040518363ffffffff167c0100000000000000000000000000000000000000000000000000000000028152600401808373ffffffffffffffffffffffffffffffffffffffff1673ffffffffffffffffffffffffffffffffffffffff16815260200182815260200192505050602060405180830381600087803b1515610c6d57600080fd5b6102c65a03f11515610c7e57600080fd5b505050604051805190501515141515610c9657600080fd5b8260ff163373ffffffffffffffffffffffffffffffffffffffff167f51160a0419cace6072cf0f4d65c046252a02c00f35ba16855ec4442577c6e5688742604051808381526020018281526020019250505060405180910390a3505050505050565b6040516107af80610d098339019056006060604052341561000f57600080fd5b6107918061001e6000396000f300606060405260043610610062576000357c0100000000000000000000000000000000000000000000000000000000900463ffffffff16806367fee8b4146100675780638ea00818146100de578063b0b22c2c14610153578063c4091236146101e7575b600080fd5b341561007257600080fd5b6100c2600480803590602001908201803590602001908080601f01602080910402602001604051908101604052809392919081815260200183838082843782019150505050505091905050610284565b604051808260ff1660ff16815260200191505060405180910390f35b34156100e957600080fd5b610139600480803590602001908201803590602001908080601f01602080910402602001604051908101604052809392919081815260200183838082843782019150505050505091905050610465565b604051808215151515815260200191505060405180910390f35b341561015e57600080fd5b6101cd600480803590602001908201803590602001908080601f0160208091040260200160405190810160405280939291908181526020018383808284378201915050505050509190803573ffffffffffffffffffffffffffffffffffffffff16906020019091905050610483565b604051808215151515815260200191505060405180910390f35b34156101f257600080fd5b610242600480803590602001908201803590602001908080601f0160208091040260200160405190810160405280939291908181526020018383808284378201915050505050509190505061066d565b604051808273ffffffffffffffffffffffffffffffffffffffff1673ffffffffffffffffffffffffffffffffffffffff16815260200191505060405180910390f35b600080600090505b6000809054906101000a900460ff1660ff168160ff16101561045a5773__Utils_________________________________6313d1995084600160008560ff1660ff1681526020019081526020016000206001016000604051602001526040518363ffffffff167c0100000000000000000000000000000000000000000000000000000000028152600401808060200180602001838103835285818151815260200191508051906020019080838360005b8381101561035757808201518184015260208101905061033c565b50505050905090810190601f1680156103845780820380516001836020036101000a031916815260200191505b508381038252848181546001816001161561010002031660029004815260200191508054600181600116156101000203166002900480156104065780601f106103db57610100808354040283529160200191610406565b820191906000526020600020905b8154815290600101906020018083116103e957829003601f168201915b505094505050505060206040518083038186803b151561042557600080fd5b6102c65a03f4151561043657600080fd5b505050604051805190501561044d5780915061045f565b808060010191505061028c565b600091505b50919050565b60008061047183610284565b905060008160ff161415915050919050565b600061048e83610465565b15151561049a57600080fd5b6000809054906101000a900460ff1660ff1660016000809054906101000a900460ff160160ff161115156104cd57600080fd5b60008081819054906101000a900460ff168092919060010191906101000a81548160ff021916908360ff1602179055505082600160008060009054906101000a900460ff1660ff1660ff168152602001908152602001600020600101908051906020019061053c9291906106c0565b5081600160008060009054906101000a900460ff1660ff1660ff16815260200190815260200160002060000160006101000a81548173ffffffffffffffffffffffffffffffffffffffff021916908373ffffffffffffffffffffffffffffffffffffffff1602179055507f10696c7897adafa7ed4e0a759d05692156133e1f6f2b30d90ef244a5503b1df66000809054906101000a900460ff168442604051808460ff16815260200180602001838152602001828103825284818151815260200191508051906020019080838360005b8381101561062757808201518184015260208101905061060c565b50505050905090810190601f1680156106545780820380516001836020036101000a031916815260200191505b5094505050505060405180910390a16001905092915050565b60008061067983610284565b9050600160008260ff1660ff16815260200190815260200160002060000160009054906101000a900473ffffffffffffffffffffffffffffffffffffffff16915050919050565b828054600181600116156101000203166002900490600052602060002090601f016020900481019282601f1061070157805160ff191683800117855561072f565b8280016001018555821561072f579182015b8281111561072e578251825591602001919060010190610713565b5b50905061073c9190610740565b5090565b61076291905b8082111561075e576000816000905550600101610746565b5090565b905600a165627a7a72305820144eb59aab04c7f5dcbee5c73cf176e15afd10618783d4f725ffaff2f88b25a40029a165627a7a72305820a256bb2add4185c2faea134eefe1b5ec0b445d79b34f4516c96ccdef34588f980029",
  "source": "pragma solidity ^0.4.18;\n\nimport \"./TokenManagement.sol\";\nimport \"./ERC20/ERC20.sol\";\n\ncontract BalanceManagement {\n\n    mapping (address => uint ) etherBalance;\n    mapping (address => mapping (uint8 => uint)) tokenBalance;\n\n    function depositEther() payable {\n        require((etherBalance[msg.sender] + msg.value) >= etherBalance[msg.sender]);\n        etherBalance[msg.sender] += msg.value;\n        EtherReceived(msg.sender,msg.value,now);\n    }\n\n    function  withdrawEther (uint amountInWei) {\n        require((etherBalance[msg.sender]) >= amountInWei);\n        etherBalance[msg.sender] -= msg.value;\n        msg.sender.transfer(amountInWei);\n        EtherWithdrawn(msg.sender,msg.value,now);\n    }\n\n    function depositToken(string _symbolName, uint _amount) payable {\n        var tm = new TokenManagement();\n        uint8 symbolNameIndex = tm.getSymbolIndex(_symbolName);\n        address tokenAddress = tm.getTokenAddress(_symbolName);\n        require(tokenAddress != address(0));\n        ERC20 currentToken = ERC20(tokenAddress);\n        require(currentToken.transferFrom(msg.sender,address(this),_amount) == true);\n        require((tokenBalance[msg.sender][symbolNameIndex] + _amount) >= tokenBalance[msg.sender][symbolNameIndex]);\n        tokenBalance[msg.sender][symbolNameIndex] += _amount;\n        TokenReceived(msg.sender,symbolNameIndex,_amount,now);\n    }\n\n    function  withdrawToken (string _symbolName, uint _amount) {\n        var tm = new TokenManagement();\n        uint8 symbolNameIndex = tm.getSymbolIndex(_symbolName);\n        address tokenAddress = tm.getTokenAddress(_symbolName);\n        require(tokenAddress != address(0));\n        require((tokenBalance[msg.sender][symbolNameIndex]) >= _amount);\n        tokenBalance[msg.sender][symbolNameIndex] -= _amount;\n        ERC20 currentToken = ERC20(tokenAddress);\n        require(currentToken.transfer(msg.sender,_amount) == true);\n        TokenWithdrawn(msg.sender,symbolNameIndex,_amount,now);\n    }\n    //events declaration \n\n    event EtherReceived(address indexed _from, uint _amount, uint _timestamp);\n    event EtherWithdrawn(address indexed _to, uint _amount, uint _timestamp);\n\n    event TokenReceived(address indexed _from, uint indexed _symbolIndex ,uint _amount, uint _timestamp);\n    event TokenWithdrawn(address indexed _to, uint indexed _symbolIndex ,uint _amount, uint _timestamp);\n}",
  "sourcePath": "/home/shishir/Work/learning/TradingExchange/contracts/BalanceManagement.sol",
  "compiler": {
    "name": "solc",
    "version": "0.4.18+commit.9cf6e910.Emscripten.clang"
  },
  "schemaVersion": "1.0.1",
  "updatedAt": "2018-01-22T11:38:08.931Z"
}