{
  "contractName": "Exchange",
  "abi": [
    {
      "constant": true,
      "inputs": [
        {
          "name": "_symbolName",
          "type": "string"
        }
      ],
      "name": "getBuyOrderBook",
      "outputs": [
        {
          "name": "",
          "type": "uint256[]"
        },
        {
          "name": "",
          "type": "uint256[]"
        }
      ],
      "payable": false,
      "stateMutability": "view",
      "type": "function"
    },
    {
      "constant": false,
      "inputs": [
        {
          "name": "_symbolName",
          "type": "string"
        },
        {
          "name": "_amount",
          "type": "uint256"
        }
      ],
      "name": "depositToken",
      "outputs": [],
      "payable": true,
      "stateMutability": "payable",
      "type": "function"
    },
    {
      "constant": false,
      "inputs": [
        {
          "name": "amountInWei",
          "type": "uint256"
        }
      ],
      "name": "withdrawEther",
      "outputs": [],
      "payable": false,
      "stateMutability": "nonpayable",
      "type": "function"
    },
    {
      "constant": false,
      "inputs": [
        {
          "name": "_symbolName",
          "type": "string"
        }
      ],
      "name": "getSymbolIndex",
      "outputs": [
        {
          "name": "",
          "type": "uint8"
        }
      ],
      "payable": false,
      "stateMutability": "nonpayable",
      "type": "function"
    },
    {
      "constant": true,
      "inputs": [
        {
          "name": "_symbolName",
          "type": "string"
        }
      ],
      "name": "getSellOrderBook",
      "outputs": [
        {
          "name": "",
          "type": "uint256[]"
        },
        {
          "name": "",
          "type": "uint256[]"
        }
      ],
      "payable": false,
      "stateMutability": "view",
      "type": "function"
    },
    {
      "constant": true,
      "inputs": [
        {
          "name": "symbolName",
          "type": "string"
        }
      ],
      "name": "hasToken",
      "outputs": [
        {
          "name": "",
          "type": "bool"
        }
      ],
      "payable": false,
      "stateMutability": "view",
      "type": "function"
    },
    {
      "constant": false,
      "inputs": [],
      "name": "depositEther",
      "outputs": [],
      "payable": true,
      "stateMutability": "payable",
      "type": "function"
    },
    {
      "constant": false,
      "inputs": [
        {
          "name": "_symbolName",
          "type": "string"
        },
        {
          "name": "_tokenAddress",
          "type": "address"
        }
      ],
      "name": "addToken",
      "outputs": [
        {
          "name": "",
          "type": "bool"
        }
      ],
      "payable": false,
      "stateMutability": "nonpayable",
      "type": "function"
    },
    {
      "constant": false,
      "inputs": [
        {
          "name": "_symbolName",
          "type": "string"
        }
      ],
      "name": "getTokenAddress",
      "outputs": [
        {
          "name": "",
          "type": "address"
        }
      ],
      "payable": false,
      "stateMutability": "nonpayable",
      "type": "function"
    },
    {
      "constant": false,
      "inputs": [
        {
          "name": "_symbolName",
          "type": "string"
        },
        {
          "name": "_amount",
          "type": "uint256"
        }
      ],
      "name": "withdrawToken",
      "outputs": [],
      "payable": false,
      "stateMutability": "nonpayable",
      "type": "function"
    },
    {
      "constant": false,
      "inputs": [
        {
          "name": "_symbolName",
          "type": "string"
        },
        {
          "name": "_isSellOrder",
          "type": "bool"
        },
        {
          "name": "_priceInWei",
          "type": "uint256"
        },
        {
          "name": "_offerKey",
          "type": "uint256"
        }
      ],
      "name": "cancelOrder",
      "outputs": [],
      "payable": false,
      "stateMutability": "nonpayable",
      "type": "function"
    },
    {
      "anonymous": false,
      "inputs": [
        {
          "indexed": false,
          "name": "_symbolIndex",
          "type": "uint256"
        },
        {
          "indexed": false,
          "name": "_symbolName",
          "type": "string"
        },
        {
          "indexed": false,
          "name": "_timestamp",
          "type": "uint256"
        }
      ],
      "name": "TokenAddedToExchange",
      "type": "event"
    },
    {
      "anonymous": false,
      "inputs": [
        {
          "indexed": true,
          "name": "_from",
          "type": "address"
        },
        {
          "indexed": false,
          "name": "_amount",
          "type": "uint256"
        },
        {
          "indexed": false,
          "name": "_timestamp",
          "type": "uint256"
        }
      ],
      "name": "EtherReceived",
      "type": "event"
    },
    {
      "anonymous": false,
      "inputs": [
        {
          "indexed": true,
          "name": "_to",
          "type": "address"
        },
        {
          "indexed": false,
          "name": "_amount",
          "type": "uint256"
        },
        {
          "indexed": false,
          "name": "_timestamp",
          "type": "uint256"
        }
      ],
      "name": "EtherWithdrawn",
      "type": "event"
    },
    {
      "anonymous": false,
      "inputs": [
        {
          "indexed": true,
          "name": "_from",
          "type": "address"
        },
        {
          "indexed": true,
          "name": "_symbolIndex",
          "type": "uint256"
        },
        {
          "indexed": false,
          "name": "_amount",
          "type": "uint256"
        },
        {
          "indexed": false,
          "name": "_timestamp",
          "type": "uint256"
        }
      ],
      "name": "TokenReceived",
      "type": "event"
    },
    {
      "anonymous": false,
      "inputs": [
        {
          "indexed": true,
          "name": "_to",
          "type": "address"
        },
        {
          "indexed": true,
          "name": "_symbolIndex",
          "type": "uint256"
        },
        {
          "indexed": false,
          "name": "_amount",
          "type": "uint256"
        },
        {
          "indexed": false,
          "name": "_timestamp",
          "type": "uint256"
        }
      ],
      "name": "TokenWithdrawn",
      "type": "event"
    },
    {
      "anonymous": false,
      "inputs": [
        {
          "indexed": true,
          "name": "_symbolIndex",
          "type": "uint256"
        },
        {
          "indexed": false,
          "name": "_priceInWei",
          "type": "uint256"
        },
        {
          "indexed": false,
          "name": "_orderKey",
          "type": "uint256"
        }
      ],
      "name": "BuyOrderCanceled",
      "type": "event"
    },
    {
      "anonymous": false,
      "inputs": [
        {
          "indexed": true,
          "name": "_symbolIndex",
          "type": "uint256"
        },
        {
          "indexed": true,
          "name": "_who",
          "type": "address"
        },
        {
          "indexed": false,
          "name": "_amount",
          "type": "uint256"
        },
        {
          "indexed": false,
          "name": "_priceInWei",
          "type": "uint256"
        },
        {
          "indexed": false,
          "name": "_orderKey",
          "type": "uint256"
        }
      ],
      "name": "LimitBuyOrderCreated",
      "type": "event"
    },
    {
      "anonymous": false,
      "inputs": [
        {
          "indexed": true,
          "name": "_symbolIndex",
          "type": "uint256"
        },
        {
          "indexed": true,
          "name": "_who",
          "type": "address"
        },
        {
          "indexed": false,
          "name": "_amount",
          "type": "uint256"
        },
        {
          "indexed": false,
          "name": "_priceInWei",
          "type": "uint256"
        },
        {
          "indexed": false,
          "name": "_orderKey",
          "type": "uint256"
        }
      ],
      "name": "LimitSellrderCreated",
      "type": "event"
    },
    {
      "anonymous": false,
      "inputs": [
        {
          "indexed": true,
          "name": "_symbolIndex",
          "type": "uint256"
        },
        {
          "indexed": false,
          "name": "_priceInWei",
          "type": "uint256"
        },
        {
          "indexed": false,
          "name": "_orderKey",
          "type": "uint256"
        }
      ],
      "name": "SellOrderCanceled",
      "type": "event"
    },
    {
      "anonymous": false,
      "inputs": [
        {
          "indexed": true,
          "name": "_symbolIndex",
          "type": "uint256"
        },
        {
          "indexed": false,
          "name": "_amount",
          "type": "uint256"
        },
        {
          "indexed": false,
          "name": "_priceInWei",
          "type": "uint256"
        },
        {
          "indexed": false,
          "name": "_orderKey",
          "type": "uint256"
        }
      ],
      "name": "SellOrderFulfilled",
      "type": "event"
    }
  ],
  "bytecode": "0x6060604052341561000f57600080fd5b611b188061001e6000396000f3006060604052600436106100af576000357c0100000000000000000000000000000000000000000000000000000000900463ffffffff16806303bc4a27146100b457806333ad57e4146101ae5780633bed33ce1461020957806367fee8b41461022c578063728ff029146102a35780638ea008181461039d57806398ea5fca14610412578063b0b22c2c1461041c578063c4091236146104b0578063c97a413a1461054d578063d1a3b025146105b3575b600080fd5b34156100bf57600080fd5b61010f600480803590602001908201803590602001908080601f0160208091040260200160405190810160405280939291908181526020018383808284378201915050505050509190505061062d565b604051808060200180602001838103835285818151815260200191508051906020019060200280838360005b8381101561015657808201518184015260208101905061013b565b50505050905001838103825284818151815260200191508051906020019060200280838360005b8381101561019857808201518184015260208101905061017d565b5050505090500194505050505060405180910390f35b610207600480803590602001908201803590602001908080601f0160208091040260200160405190810160405280939291908181526020018383808284378201915050505050509190803590602001909190505061082e565b005b341561021457600080fd5b61022a6004808035906020019091905050610b4a565b005b341561023757600080fd5b610287600480803590602001908201803590602001908080601f01602080910402602001604051908101604052809392919081815260200183838082843782019150505050505091905050610c7e565b604051808260ff1660ff16815260200191505060405180910390f35b34156102ae57600080fd5b6102fe600480803590602001908201803590602001908080601f01602080910402602001604051908101604052809392919081815260200183838082843782019150505050505091905050610e5f565b604051808060200180602001838103835285818151815260200191508051906020019060200280838360005b8381101561034557808201518184015260208101905061032a565b50505050905001838103825284818151815260200191508051906020019060200280838360005b8381101561038757808201518184015260208101905061036c565b5050505090500194505050505060405180910390f35b34156103a857600080fd5b6103f8600480803590602001908201803590602001908080601f01602080910402602001604051908101604052809392919081815260200183838082843782019150505050505091905050611061565b604051808215151515815260200191505060405180910390f35b61041a61107f565b005b341561042757600080fd5b610496600480803590602001908201803590602001908080601f0160208091040260200160405190810160405280939291908181526020018383808284378201915050505050509190803573ffffffffffffffffffffffffffffffffffffffff169060200190919050506111b3565b604051808215151515815260200191505060405180910390f35b34156104bb57600080fd5b61050b600480803590602001908201803590602001908080601f0160208091040260200160405190810160405280939291908181526020018383808284378201915050505050509190505061139d565b604051808273ffffffffffffffffffffffffffffffffffffffff1673ffffffffffffffffffffffffffffffffffffffff16815260200191505060405180910390f35b341561055857600080fd5b6105b1600480803590602001908201803590602001908080601f016020809104026020016040519081016040528093929190818152602001838380828437820191505050505050919080359060200190919050506113f0565b005b34156105be57600080fd5b61062b600480803590602001908201803590602001908080601f016020809104026020016040519081016040528093929190818152602001838380828437820191505050505050919080351515906020019091908035906020019091908035906020019091905050611680565b005b610635611a33565b61063d611a33565b6000610647611a33565b61064f611a33565b60008060008060006106608b610c7e565b9750600160008960ff1660ff1681526020019081526020016000206004015460405180591061068c5750595b90808252806020026020018201604052509650600160008960ff1660ff168152602001908152602001600020600401546040518059106106c95750595b90808252806020026020018201604052509550600160008960ff1660ff168152602001908152602001600020600301549450600093506000600160008a60ff1660ff16815260200190815260200160002060020154111561081b575b600160008960ff1660ff168152602001908152602001600020600201548511151561081a5784878581518110151561075957fe5b906020019060200201818152505060009250600160008960ff1660ff16815260200190815260200160002060080160008681526020019081526020016000209150816003015490505b81600401548110156107d857816002016000828152602001908152602001600020600001548301925080806001019150506107a2565b8286858151811015156107e757fe5b906020019060200201818152505081600001548514156108065761081a565b816000015494508380600101945050610725565b5b8686995099505050505050505050915091565b600080600061083c85610c7e565b9250600160008460ff1660ff16815260200190815260200160002060000160009054906101000a900473ffffffffffffffffffffffffffffffffffffffff169150600073ffffffffffffffffffffffffffffffffffffffff168273ffffffffffffffffffffffffffffffffffffffff16141515156108b957600080fd5b819050600115158173ffffffffffffffffffffffffffffffffffffffff166323b872dd3330886000604051602001526040518463ffffffff167c0100000000000000000000000000000000000000000000000000000000028152600401808473ffffffffffffffffffffffffffffffffffffffff1673ffffffffffffffffffffffffffffffffffffffff1681526020018373ffffffffffffffffffffffffffffffffffffffff1673ffffffffffffffffffffffffffffffffffffffff1681526020018281526020019350505050602060405180830381600087803b151561099f57600080fd5b6102c65a03f115156109b057600080fd5b5050506040518051905015151415156109c857600080fd5b600360003373ffffffffffffffffffffffffffffffffffffffff1673ffffffffffffffffffffffffffffffffffffffff16815260200190815260200160002060008460ff1660ff1681526020019081526020016000205484600360003373ffffffffffffffffffffffffffffffffffffffff1673ffffffffffffffffffffffffffffffffffffffff16815260200190815260200160002060008660ff1660ff168152602001908152602001600020540110151515610a8557600080fd5b83600360003373ffffffffffffffffffffffffffffffffffffffff1673ffffffffffffffffffffffffffffffffffffffff16815260200190815260200160002060008560ff1660ff168152602001908152602001600020600082825401925050819055508260ff163373ffffffffffffffffffffffffffffffffffffffff167fdef422a44f208b3108bd6fee4f92da9332641cdc3e5885e36ffc8b72d5498dc18642604051808381526020018281526020019250505060405180910390a35050505050565b80600260003373ffffffffffffffffffffffffffffffffffffffff1673ffffffffffffffffffffffffffffffffffffffff1681526020019081526020016000205410151515610b9857600080fd5b34600260003373ffffffffffffffffffffffffffffffffffffffff1673ffffffffffffffffffffffffffffffffffffffff168152602001908152602001600020600082825403925050819055503373ffffffffffffffffffffffffffffffffffffffff166108fc829081150290604051600060405180830381858888f193505050501515610c2557600080fd5b3373ffffffffffffffffffffffffffffffffffffffff167fd5ca65e1ec4f4864fea7b9c5cb1ec3087a0dbf9c74641db3f6458edf445c40513442604051808381526020018281526020019250505060405180910390a250565b600080600090505b6000809054906101000a900460ff1660ff168160ff161015610e545773__Utils_________________________________6313d1995084600160008560ff1660ff1681526020019081526020016000206001016000604051602001526040518363ffffffff167c0100000000000000000000000000000000000000000000000000000000028152600401808060200180602001838103835285818151815260200191508051906020019080838360005b83811015610d51578082015181840152602081019050610d36565b50505050905090810190601f168015610d7e5780820380516001836020036101000a031916815260200191505b50838103825284818154600181600116156101000203166002900481526020019150805460018160011615610100020316600290048015610e005780601f10610dd557610100808354040283529160200191610e00565b820191906000526020600020905b815481529060010190602001808311610de357829003601f168201915b505094505050505060206040518083038186803b1515610e1f57600080fd5b6102c65a03f41515610e3057600080fd5b5050506040518051905015610e4757809150610e59565b8080600101915050610c86565b600091505b50919050565b610e67611a33565b610e6f611a33565b6000610e79611a33565b610e81611a33565b6000806000806000610e928b610c7e565b9750600160008960ff1660ff16815260200190815260200160002060070154604051805910610ebe5750595b90808252806020026020018201604052509650600160008960ff1660ff16815260200190815260200160002060070154604051805910610efb5750595b90808252806020026020018201604052509550600160008960ff1660ff168152602001908152602001600020600501549450600093506000600160008a60ff1660ff16815260200190815260200160002060050154111561104e575b600160008960ff1660ff168152602001908152602001600020600601548511151561104d57848785815181101515610f8b57fe5b906020019060200201818152505060009250600160008960ff1660ff16815260200190815260200160002060090160008681526020019081526020016000209150816003015490505b816004015481101561100a5781600201600082815260200190815260200160002060000154830192508080600101915050610fd4565b82868581518110151561101957fe5b90602001906020020181815250506000826000015414156110395761104d565b816000015494508380600101945050610f57565b5b8686995099505050505050505050915091565b60008061106d83610c7e565b905060008160ff161415915050919050565b600260003373ffffffffffffffffffffffffffffffffffffffff1673ffffffffffffffffffffffffffffffffffffffff1681526020019081526020016000205434600260003373ffffffffffffffffffffffffffffffffffffffff1673ffffffffffffffffffffffffffffffffffffffff16815260200190815260200160002054011015151561110e57600080fd5b34600260003373ffffffffffffffffffffffffffffffffffffffff1673ffffffffffffffffffffffffffffffffffffffff168152602001908152602001600020600082825401925050819055503373ffffffffffffffffffffffffffffffffffffffff167f1d57945c1033a96907a78f6e0ebf6a03815725dac25f33cc806558670344ac883442604051808381526020018281526020019250505060405180910390a2565b60006111be83611061565b1515156111ca57600080fd5b6000809054906101000a900460ff1660ff1660016000809054906101000a900460ff160160ff161115156111fd57600080fd5b60008081819054906101000a900460ff168092919060010191906101000a81548160ff021916908360ff1602179055505082600160008060009054906101000a900460ff1660ff1660ff168152602001908152602001600020600101908051906020019061126c929190611a47565b5081600160008060009054906101000a900460ff1660ff1660ff16815260200190815260200160002060000160006101000a81548173ffffffffffffffffffffffffffffffffffffffff021916908373ffffffffffffffffffffffffffffffffffffffff1602179055507f10696c7897adafa7ed4e0a759d05692156133e1f6f2b30d90ef244a5503b1df66000809054906101000a900460ff168442604051808460ff16815260200180602001838152602001828103825284818151815260200191508051906020019080838360005b8381101561135757808201518184015260208101905061133c565b50505050905090810190601f1680156113845780820380516001836020036101000a031916815260200191505b5094505050505060405180910390a16001905092915050565b6000806113a983610c7e565b9050600160008260ff1660ff16815260200190815260200160002060000160009054906101000a900473ffffffffffffffffffffffffffffffffffffffff16915050919050565b60008060006113fe85610c7e565b9250600160008460ff1660ff16815260200190815260200160002060000160009054906101000a900473ffffffffffffffffffffffffffffffffffffffff169150600073ffffffffffffffffffffffffffffffffffffffff168273ffffffffffffffffffffffffffffffffffffffff161415151561147b57600080fd5b83600360003373ffffffffffffffffffffffffffffffffffffffff1673ffffffffffffffffffffffffffffffffffffffff16815260200190815260200160002060008560ff1660ff16815260200190815260200160002054101515156114e057600080fd5b83600360003373ffffffffffffffffffffffffffffffffffffffff1673ffffffffffffffffffffffffffffffffffffffff16815260200190815260200160002060008560ff1660ff16815260200190815260200160002060008282540392505081905550819050600115158173ffffffffffffffffffffffffffffffffffffffff1663a9059cbb33876000604051602001526040518363ffffffff167c0100000000000000000000000000000000000000000000000000000000028152600401808373ffffffffffffffffffffffffffffffffffffffff1673ffffffffffffffffffffffffffffffffffffffff16815260200182815260200192505050602060405180830381600087803b15156115f657600080fd5b6102c65a03f1151561160757600080fd5b50505060405180519050151514151561161f57600080fd5b8260ff163373ffffffffffffffffffffffffffffffffffffffff167f51160a0419cace6072cf0f4d65c046252a02c00f35ba16855ec4442577c6e5688642604051808381526020018281526020019250505060405180910390a35050505050565b6000806000806000806116928a610c7e565b9550881561182b57600160008760ff1660ff168152602001908152602001600020600901600089815260200190815260200160002094503373ffffffffffffffffffffffffffffffffffffffff1685600201600089815260200190815260200160002060010160009054906101000a900473ffffffffffffffffffffffffffffffffffffffff1673ffffffffffffffffffffffffffffffffffffffff1614151561173b57600080fd5b846002016000888152602001908152602001600020600001549350600360003373ffffffffffffffffffffffffffffffffffffffff1673ffffffffffffffffffffffffffffffffffffffff16815260200190815260200160002060008760ff1660ff16815260200190815260200160002054925082848401101515156117c057600080fd5b83830192506000856002016000898152602001908152602001600020600001819055508560ff167fffac5f4941e92bc6814610a825eeff0ae9bb4a17d47c0e2353c6889b2b550fb88989604051808381526020018281526020019250505060405180910390a2611a27565b600160008760ff1660ff168152602001908152602001600020600801600089815260200190815260200160002091503373ffffffffffffffffffffffffffffffffffffffff1682600201600089815260200190815260200160002060010160009054906101000a900473ffffffffffffffffffffffffffffffffffffffff1673ffffffffffffffffffffffffffffffffffffffff161415156118cc57600080fd5b8782600201600089815260200190815260200160002060000154029050600260003373ffffffffffffffffffffffffffffffffffffffff1673ffffffffffffffffffffffffffffffffffffffff1681526020019081526020016000205481600260003373ffffffffffffffffffffffffffffffffffffffff1673ffffffffffffffffffffffffffffffffffffffff16815260200190815260200160002054011015151561197857600080fd5b80600260003373ffffffffffffffffffffffffffffffffffffffff1673ffffffffffffffffffffffffffffffffffffffff168152602001908152602001600020600082825401925050819055506000826002016000898152602001908152602001600020600001819055508560ff167f5f2fdca15d8ab2ad3f590066add3054471b3603ca44a66f12e124e9c97ec19558989604051808381526020018281526020019250505060405180910390a25b50505050505050505050565b602060405190810160405280600081525090565b828054600181600116156101000203166002900490600052602060002090601f016020900481019282601f10611a8857805160ff1916838001178555611ab6565b82800160010185558215611ab6579182015b82811115611ab5578251825591602001919060010190611a9a565b5b509050611ac39190611ac7565b5090565b611ae991905b80821115611ae5576000816000905550600101611acd565b5090565b905600a165627a7a72305820b4afabec77afeaa682287d41d0af6c6d2b56a5fe03402b1fe19abfa51da94d9b0029",
  "source": "pragma solidity ^0.4.18;\n\nimport \"./library/Utils.sol\";\nimport \"./ERC20/ERC20.sol\";\n\ncontract Exchange {\n \n struct Offer {\n        uint amount;\n        address who;\n    }\n\n    struct OrderBook {\n        uint higherPrice;\n        uint lowerPrice;\n\n        mapping (uint => Offer) offers;\n        \n        uint offersKey;\n        uint offersLength;\n    }\n\n     struct Token {\n\n        address  tokenContract ;\n        string symbolName;\n\n        uint currentBuyPrice ;\n        uint lowestBuyPrice ;\n        uint amountBuyPrices ;\n\n        uint currentSellPrice ;\n        uint highestSellPrice ;\n        uint amountSellPrices ;\n        \n        mapping(uint => OrderBook) buyBook;\n        \n        mapping(uint => OrderBook) sellBook;\n    }\n\n    uint8 symbolNameIndex ; \n    mapping (uint8 => Token) tokens;\n\n    // Balance Management \n    \n     mapping (address => uint ) etherBalance;\n    mapping (address => mapping (uint8 => uint)) tokenBalance;\n\n\n// -------------------------------Token Management  -------------------------------\n\n    function addToken(string _symbolName, address _tokenAddress)  returns (bool){\n        require(!hasToken(_symbolName));\n        require(symbolNameIndex+1 > symbolNameIndex);\n        symbolNameIndex++;\n         \n        tokens[symbolNameIndex].symbolName = _symbolName;\n        tokens[symbolNameIndex].tokenContract = _tokenAddress;\n        TokenAddedToExchange(symbolNameIndex,_symbolName,now);\n        return true;\n    }\n\n    event TokenAddedToExchange(uint _symbolIndex,string _symbolName, uint _timestamp);\n\n\n    function getTokenAddress(string _symbolName) public returns (address) {\n        uint8 indexValue = getSymbolIndex(_symbolName);\n        return tokens[indexValue].tokenContract;\n    }\n\n    function getSymbolIndex(string _symbolName) public returns (uint8) {\n        for (var index = 0; index < symbolNameIndex; index++) {\n            if (Utils.stringsEqual(_symbolName, tokens[index].symbolName)) {\n                return index;\n            }\n        }\n        return 0;\n    }\n\n      function hasToken(string symbolName) constant returns (bool) {\n        uint8 index = getSymbolIndex(symbolName);\n        return (index != 0);\n    }\n\n    // -------------------------------Balance Management  -------------------------------\n\n    function depositEther() payable {\n        require((etherBalance[msg.sender] + msg.value) >= etherBalance[msg.sender]);\n        etherBalance[msg.sender] += msg.value;\n        EtherReceived(msg.sender,msg.value,now);\n    }\n\n    function  withdrawEther (uint amountInWei) {\n        require((etherBalance[msg.sender]) >= amountInWei);\n        etherBalance[msg.sender] -= msg.value;\n        msg.sender.transfer(amountInWei);\n        EtherWithdrawn(msg.sender,msg.value,now);\n    }\n\n    function depositToken(string _symbolName, uint _amount) payable {\n        uint8 symbolNameIndex = getSymbolIndex(_symbolName);\n        address tokenAddress = tokens[symbolNameIndex].tokenContract;\n        require(tokenAddress != address(0));\n        ERC20 currentToken = ERC20(tokenAddress);\n        require(currentToken.transferFrom(msg.sender,address(this),_amount) == true);\n        require((tokenBalance[msg.sender][symbolNameIndex] + _amount) >= tokenBalance[msg.sender][symbolNameIndex]);\n        tokenBalance[msg.sender][symbolNameIndex] += _amount;\n        TokenReceived(msg.sender,symbolNameIndex,_amount,now);\n    }\n\n    function  withdrawToken (string _symbolName, uint _amount) {\n        uint8 symbolNameIndex = getSymbolIndex(_symbolName);\n        address tokenAddress = tokens[symbolNameIndex].tokenContract;\n        require(tokenAddress != address(0));\n        require((tokenBalance[msg.sender][symbolNameIndex]) >= _amount);\n        tokenBalance[msg.sender][symbolNameIndex] -= _amount;\n        ERC20 currentToken = ERC20(tokenAddress);\n        require(currentToken.transfer(msg.sender,_amount) == true);\n        TokenWithdrawn(msg.sender,symbolNameIndex,_amount,now);\n    }\n    //events declaration \n\n    event EtherReceived(address indexed _from, uint _amount, uint _timestamp);\n    event EtherWithdrawn(address indexed _to, uint _amount, uint _timestamp);\n\n    event TokenReceived(address indexed _from, uint indexed _symbolIndex ,uint _amount, uint _timestamp);\n    event TokenWithdrawn(address indexed _to, uint indexed _symbolIndex ,uint _amount, uint _timestamp);\n\n\n    // -------------------------------Order Management  -------------------------------\n\n    //events declaration \n    // buy events\n    event BuyOrderCanceled(uint indexed _symbolIndex, uint _priceInWei, uint _orderKey);\n    //event BuyOrderFulfilled(uint indexed _symbolIndex,uint _amount, uint _priceInWei, uint _orderKey);\n    event LimitBuyOrderCreated(uint indexed _symbolIndex, address indexed _who, uint _amount, uint _priceInWei, uint _orderKey);\n    // sell events\n    event LimitSellrderCreated(uint indexed _symbolIndex, address indexed _who, uint _amount, uint _priceInWei, uint _orderKey);\n    event SellOrderCanceled(uint indexed _symbolIndex, uint _priceInWei, uint _orderKey);\n    event SellOrderFulfilled(uint indexed _symbolIndex, uint _amount, uint _priceInWei, uint _orderKey);\n\n    function getBuyOrderBook(string _symbolName) constant returns(uint[], uint[]) {\n        uint8 symbolNameIndex = getSymbolIndex(_symbolName);\n\n        uint[] memory priceBuyArray = new uint[](tokens[symbolNameIndex].amountBuyPrices);\n        uint[] memory volumeBuyArray = new uint[](tokens[symbolNameIndex].amountBuyPrices);\n\n        uint currentLowestOffer = tokens[symbolNameIndex].lowestBuyPrice;\n\n        uint counter = 0;\n\n        if (tokens[symbolNameIndex].currentBuyPrice > 0) {\n            while (currentLowestOffer <= tokens[symbolNameIndex].currentBuyPrice) {\n                priceBuyArray[counter] = currentLowestOffer;\n                uint volumeAtThisPrice = 0;\n                var currentBuyBook = tokens[symbolNameIndex].buyBook[currentLowestOffer];\n                uint offersKey = currentBuyBook.offersKey;\n\n                while (offersKey < currentBuyBook.offersLength) {\n                    volumeAtThisPrice += currentBuyBook.offers[offersKey].amount;\n                    offersKey++;\n                }\n                volumeBuyArray[counter] = volumeAtThisPrice;\n\n                if (currentLowestOffer == currentBuyBook.higherPrice) {\n                   break; \n                } else {\n                    currentLowestOffer = currentBuyBook.higherPrice;\n                }\n                counter ++;\n            }\n        }\n        return (priceBuyArray,volumeBuyArray);\n    }\n\n    function getSellOrderBook(string _symbolName) constant returns(uint[], uint[]) {\n        uint8 symbolNameIndex = getSymbolIndex(_symbolName);\n\n        uint[] memory priceSellArray = new uint[](tokens[symbolNameIndex].amountSellPrices);\n        uint[] memory volumeSellArray = new uint[](tokens[symbolNameIndex].amountSellPrices);\n\n        uint currentSellOffer = tokens[symbolNameIndex].currentSellPrice;\n\n        uint counter = 0;\n\n        if (tokens[symbolNameIndex].currentSellPrice > 0) {\n            while (currentSellOffer <= tokens[symbolNameIndex].highestSellPrice) {\n                priceSellArray[counter] = currentSellOffer;\n                uint volumeAtThisPrice = 0;\n                var currentSellBook = tokens[symbolNameIndex].sellBook[currentSellOffer];\n                uint offersKey = currentSellBook.offersKey;\n\n                while (offersKey < currentSellBook.offersLength) {\n                    volumeAtThisPrice += currentSellBook.offers[offersKey].amount;\n                    offersKey++;\n                }\n                volumeSellArray[counter] = volumeAtThisPrice;\n\n                if (currentSellBook.higherPrice == 0) {\n                   break; \n                } else {\n                    currentSellOffer = currentSellBook.higherPrice;\n                }\n                counter ++;\n            }\n        }\n        return (priceSellArray,volumeSellArray);\n    }\n\n    function cancelOrder(string _symbolName, bool _isSellOrder, uint _priceInWei, uint _offerKey) {\n        uint8 symbolNameIndex = getSymbolIndex(_symbolName);\n\n        if(_isSellOrder) {\n             var currentSellBook = tokens[symbolNameIndex].sellBook[_priceInWei];\n             require(currentSellBook.offers[_offerKey].who == msg.sender);\n             var tokenAmount =  currentSellBook.offers[_offerKey].amount ;\n             var currentTokenBalance = tokenBalance[msg.sender][symbolNameIndex];\n             require(currentTokenBalance+tokenAmount >= currentTokenBalance);\n\n             currentTokenBalance += tokenAmount;\n             currentSellBook.offers[_offerKey].amount = 0;\n             SellOrderCanceled(symbolNameIndex,_priceInWei,_offerKey);\n\n        }else {\n            var currentBuyBook = tokens[symbolNameIndex].buyBook[_priceInWei];\n             require(currentBuyBook.offers[_offerKey].who == msg.sender);\n             var etherRefund = currentBuyBook.offers[_offerKey].amount*_priceInWei;\n             require(etherBalance[msg.sender]+etherRefund >= etherBalance[msg.sender]);\n             etherBalance[msg.sender] +=  etherRefund;\n             currentBuyBook.offers[_offerKey].amount = 0;\n             BuyOrderCanceled(symbolNameIndex,_priceInWei,_offerKey);\n        }\n        \n    }\n\n}\n",
  "sourcePath": "/home/shishir/Work/learning/TradingExchange/contracts/Exchange.sol",
  "compiler": {
    "name": "solc",
    "version": "0.4.18+commit.9cf6e910.Emscripten.clang"
  },
  "schemaVersion": "1.0.1",
  "updatedAt": "2018-01-24T11:49:26.921Z"
}