{
  "contractName": "Exchange",
  "abi": [
    {
      "constant": true,
      "inputs": [
        {
          "name": "_symbolName",
          "type": "string"
        }
      ],
      "name": "getBuyOrderBook",
      "outputs": [
        {
          "name": "",
          "type": "uint256[]"
        },
        {
          "name": "",
          "type": "uint256[]"
        }
      ],
      "payable": false,
      "stateMutability": "view",
      "type": "function"
    },
    {
      "constant": false,
      "inputs": [
        {
          "name": "_symbolName",
          "type": "string"
        },
        {
          "name": "_amount",
          "type": "uint256"
        }
      ],
      "name": "depositToken",
      "outputs": [],
      "payable": true,
      "stateMutability": "payable",
      "type": "function"
    },
    {
      "constant": false,
      "inputs": [
        {
          "name": "amountInWei",
          "type": "uint256"
        }
      ],
      "name": "withdrawEther",
      "outputs": [],
      "payable": false,
      "stateMutability": "nonpayable",
      "type": "function"
    },
    {
      "constant": false,
      "inputs": [
        {
          "name": "_symbolName",
          "type": "string"
        },
        {
          "name": "_priceInWei",
          "type": "uint256"
        },
        {
          "name": "_amount",
          "type": "uint256"
        }
      ],
      "name": "buyToken",
      "outputs": [],
      "payable": false,
      "stateMutability": "nonpayable",
      "type": "function"
    },
    {
      "constant": false,
      "inputs": [
        {
          "name": "_symbolName",
          "type": "string"
        }
      ],
      "name": "getSymbolIndex",
      "outputs": [
        {
          "name": "",
          "type": "uint8"
        }
      ],
      "payable": false,
      "stateMutability": "nonpayable",
      "type": "function"
    },
    {
      "constant": true,
      "inputs": [
        {
          "name": "_symbolName",
          "type": "string"
        }
      ],
      "name": "getSellOrderBook",
      "outputs": [
        {
          "name": "",
          "type": "uint256[]"
        },
        {
          "name": "",
          "type": "uint256[]"
        }
      ],
      "payable": false,
      "stateMutability": "view",
      "type": "function"
    },
    {
      "constant": false,
      "inputs": [
        {
          "name": "_symbolName",
          "type": "string"
        },
        {
          "name": "_priceInWei",
          "type": "uint256"
        },
        {
          "name": "_amount",
          "type": "uint256"
        }
      ],
      "name": "sellToken",
      "outputs": [],
      "payable": false,
      "stateMutability": "nonpayable",
      "type": "function"
    },
    {
      "constant": true,
      "inputs": [
        {
          "name": "symbolName",
          "type": "string"
        }
      ],
      "name": "hasToken",
      "outputs": [
        {
          "name": "",
          "type": "bool"
        }
      ],
      "payable": false,
      "stateMutability": "view",
      "type": "function"
    },
    {
      "constant": false,
      "inputs": [],
      "name": "depositEther",
      "outputs": [],
      "payable": true,
      "stateMutability": "payable",
      "type": "function"
    },
    {
      "constant": false,
      "inputs": [
        {
          "name": "_symbolName",
          "type": "string"
        },
        {
          "name": "_tokenAddress",
          "type": "address"
        }
      ],
      "name": "addToken",
      "outputs": [
        {
          "name": "",
          "type": "bool"
        }
      ],
      "payable": false,
      "stateMutability": "nonpayable",
      "type": "function"
    },
    {
      "constant": false,
      "inputs": [
        {
          "name": "_symbolName",
          "type": "string"
        }
      ],
      "name": "getTokenAddress",
      "outputs": [
        {
          "name": "",
          "type": "address"
        }
      ],
      "payable": false,
      "stateMutability": "nonpayable",
      "type": "function"
    },
    {
      "constant": false,
      "inputs": [
        {
          "name": "_symbolName",
          "type": "string"
        },
        {
          "name": "_amount",
          "type": "uint256"
        }
      ],
      "name": "withdrawToken",
      "outputs": [],
      "payable": false,
      "stateMutability": "nonpayable",
      "type": "function"
    },
    {
      "constant": false,
      "inputs": [
        {
          "name": "_symbolName",
          "type": "string"
        },
        {
          "name": "_isSellOrder",
          "type": "bool"
        },
        {
          "name": "_priceInWei",
          "type": "uint256"
        },
        {
          "name": "_offerKey",
          "type": "uint256"
        }
      ],
      "name": "cancelOrder",
      "outputs": [],
      "payable": false,
      "stateMutability": "nonpayable",
      "type": "function"
    },
    {
      "anonymous": false,
      "inputs": [
        {
          "indexed": false,
          "name": "_symbolIndex",
          "type": "uint256"
        },
        {
          "indexed": false,
          "name": "_symbolName",
          "type": "string"
        },
        {
          "indexed": false,
          "name": "_timestamp",
          "type": "uint256"
        }
      ],
      "name": "TokenAddedToExchange",
      "type": "event"
    },
    {
      "anonymous": false,
      "inputs": [
        {
          "indexed": true,
          "name": "_from",
          "type": "address"
        },
        {
          "indexed": false,
          "name": "_amount",
          "type": "uint256"
        },
        {
          "indexed": false,
          "name": "_timestamp",
          "type": "uint256"
        }
      ],
      "name": "EtherReceived",
      "type": "event"
    },
    {
      "anonymous": false,
      "inputs": [
        {
          "indexed": true,
          "name": "_to",
          "type": "address"
        },
        {
          "indexed": false,
          "name": "_amount",
          "type": "uint256"
        },
        {
          "indexed": false,
          "name": "_timestamp",
          "type": "uint256"
        }
      ],
      "name": "EtherWithdrawn",
      "type": "event"
    },
    {
      "anonymous": false,
      "inputs": [
        {
          "indexed": true,
          "name": "_from",
          "type": "address"
        },
        {
          "indexed": true,
          "name": "_symbolIndex",
          "type": "uint256"
        },
        {
          "indexed": false,
          "name": "_amount",
          "type": "uint256"
        },
        {
          "indexed": false,
          "name": "_timestamp",
          "type": "uint256"
        }
      ],
      "name": "TokenReceived",
      "type": "event"
    },
    {
      "anonymous": false,
      "inputs": [
        {
          "indexed": true,
          "name": "_to",
          "type": "address"
        },
        {
          "indexed": true,
          "name": "_symbolIndex",
          "type": "uint256"
        },
        {
          "indexed": false,
          "name": "_amount",
          "type": "uint256"
        },
        {
          "indexed": false,
          "name": "_timestamp",
          "type": "uint256"
        }
      ],
      "name": "TokenWithdrawn",
      "type": "event"
    },
    {
      "anonymous": false,
      "inputs": [
        {
          "indexed": true,
          "name": "_symbolIndex",
          "type": "uint256"
        },
        {
          "indexed": false,
          "name": "_priceInWei",
          "type": "uint256"
        },
        {
          "indexed": false,
          "name": "_orderKey",
          "type": "uint256"
        }
      ],
      "name": "BuyOrderCanceled",
      "type": "event"
    },
    {
      "anonymous": false,
      "inputs": [
        {
          "indexed": true,
          "name": "_symbolIndex",
          "type": "uint256"
        },
        {
          "indexed": true,
          "name": "_who",
          "type": "address"
        },
        {
          "indexed": false,
          "name": "_amount",
          "type": "uint256"
        },
        {
          "indexed": false,
          "name": "_priceInWei",
          "type": "uint256"
        },
        {
          "indexed": false,
          "name": "_orderKey",
          "type": "uint256"
        }
      ],
      "name": "LimitBuyOrderCreated",
      "type": "event"
    },
    {
      "anonymous": false,
      "inputs": [
        {
          "indexed": true,
          "name": "_symbolIndex",
          "type": "uint256"
        },
        {
          "indexed": true,
          "name": "_who",
          "type": "address"
        },
        {
          "indexed": false,
          "name": "_amount",
          "type": "uint256"
        },
        {
          "indexed": false,
          "name": "_priceInWei",
          "type": "uint256"
        },
        {
          "indexed": false,
          "name": "_orderKey",
          "type": "uint256"
        }
      ],
      "name": "LimitSellOrderCreated",
      "type": "event"
    },
    {
      "anonymous": false,
      "inputs": [
        {
          "indexed": true,
          "name": "_symbolIndex",
          "type": "uint256"
        },
        {
          "indexed": false,
          "name": "_priceInWei",
          "type": "uint256"
        },
        {
          "indexed": false,
          "name": "_orderKey",
          "type": "uint256"
        }
      ],
      "name": "SellOrderCanceled",
      "type": "event"
    },
    {
      "anonymous": false,
      "inputs": [
        {
          "indexed": true,
          "name": "_symbolIndex",
          "type": "uint256"
        },
        {
          "indexed": false,
          "name": "_amount",
          "type": "uint256"
        },
        {
          "indexed": false,
          "name": "_priceInWei",
          "type": "uint256"
        },
        {
          "indexed": false,
          "name": "_orderKey",
          "type": "uint256"
        }
      ],
      "name": "SellOrderFulfilled",
      "type": "event"
    }
  ],
  "bytecode": "0x6060604052341561000f57600080fd5b61442a8061001e6000396000f3006060604052600436106100c5576000357c0100000000000000000000000000000000000000000000000000000000900463ffffffff16806303bc4a27146100ca57806333ad57e4146101c45780633bed33ce1461021f5780635ab8ea331461024257806367fee8b4146102b1578063728ff02914610328578063851030fe146104225780638ea008181461049157806398ea5fca14610506578063b0b22c2c14610510578063c4091236146105a4578063c97a413a14610641578063d1a3b025146106a7575b600080fd5b34156100d557600080fd5b610125600480803590602001908201803590602001908080601f01602080910402602001604051908101604052809392919081815260200183838082843782019150505050505091905050610721565b604051808060200180602001838103835285818151815260200191508051906020019060200280838360005b8381101561016c578082015181840152602081019050610151565b50505050905001838103825284818151815260200191508051906020019060200280838360005b838110156101ae578082015181840152602081019050610193565b5050505090500194505050505060405180910390f35b61021d600480803590602001908201803590602001908080601f01602080910402602001604051908101604052809392919081815260200183838082843782019150505050505091908035906020019091905050610922565b005b341561022a57600080fd5b6102406004808035906020019091905050610c3e565b005b341561024d57600080fd5b6102af600480803590602001908201803590602001908080601f01602080910402602001604051908101604052809392919081815260200183838082843782019150505050505091908035906020019091908035906020019091905050610d72565b005b34156102bc57600080fd5b61030c600480803590602001908201803590602001908080601f01602080910402602001604051908101604052809392919081815260200183838082843782019150505050505091905050611c60565b604051808260ff1660ff16815260200191505060405180910390f35b341561033357600080fd5b610383600480803590602001908201803590602001908080601f01602080910402602001604051908101604052809392919081815260200183838082843782019150505050505091905050611e41565b604051808060200180602001838103835285818151815260200191508051906020019060200280838360005b838110156103ca5780820151818401526020810190506103af565b50505050905001838103825284818151815260200191508051906020019060200280838360005b8381101561040c5780820151818401526020810190506103f1565b5050505090500194505050505060405180910390f35b341561042d57600080fd5b61048f600480803590602001908201803590602001908080601f01602080910402602001604051908101604052809392919081815260200183838082843782019150505050505091908035906020019091908035906020019091905050612043565b005b341561049c57600080fd5b6104ec600480803590602001908201803590602001908080601f016020809104026020016040519081016040528093929190818152602001838380828437820191505050505050919050506130f5565b604051808215151515815260200191505060405180910390f35b61050e613113565b005b341561051b57600080fd5b61058a600480803590602001908201803590602001908080601f0160208091040260200160405190810160405280939291908181526020018383808284378201915050505050509190803573ffffffffffffffffffffffffffffffffffffffff16906020019091905050613247565b604051808215151515815260200191505060405180910390f35b34156105af57600080fd5b6105ff600480803590602001908201803590602001908080601f01602080910402602001604051908101604052809392919081815260200183838082843782019150505050505091905050613431565b604051808273ffffffffffffffffffffffffffffffffffffffff1673ffffffffffffffffffffffffffffffffffffffff16815260200191505060405180910390f35b341561064c57600080fd5b6106a5600480803590602001908201803590602001908080601f01602080910402602001604051908101604052809392919081815260200183838082843782019150505050505091908035906020019091905050613484565b005b34156106b257600080fd5b61071f600480803590602001908201803590602001908080601f016020809104026020016040519081016040528093929190818152602001838380828437820191505050505050919080351515906020019091908035906020019091908035906020019091905050613714565b005b610729614345565b610731614345565b600061073b614345565b610743614345565b60008060008060006107548b611c60565b9750600160008960ff1660ff168152602001908152602001600020600401546040518059106107805750595b90808252806020026020018201604052509650600160008960ff1660ff168152602001908152602001600020600401546040518059106107bd5750595b90808252806020026020018201604052509550600160008960ff1660ff168152602001908152602001600020600301549450600093506000600160008a60ff1660ff16815260200190815260200160002060020154111561090f575b600160008960ff1660ff168152602001908152602001600020600201548511151561090e5784878581518110151561084d57fe5b906020019060200201818152505060009250600160008960ff1660ff16815260200190815260200160002060080160008681526020019081526020016000209150816003015490505b81600401548110156108cc5781600201600082815260200190815260200160002060000154830192508080600101915050610896565b8286858151811015156108db57fe5b906020019060200201818152505081600001548514156108fa5761090e565b816000015494508380600101945050610819565b5b8686995099505050505050505050915091565b600080600061093085611c60565b9250600160008460ff1660ff16815260200190815260200160002060000160009054906101000a900473ffffffffffffffffffffffffffffffffffffffff169150600073ffffffffffffffffffffffffffffffffffffffff168273ffffffffffffffffffffffffffffffffffffffff16141515156109ad57600080fd5b819050600115158173ffffffffffffffffffffffffffffffffffffffff166323b872dd3330886000604051602001526040518463ffffffff167c0100000000000000000000000000000000000000000000000000000000028152600401808473ffffffffffffffffffffffffffffffffffffffff1673ffffffffffffffffffffffffffffffffffffffff1681526020018373ffffffffffffffffffffffffffffffffffffffff1673ffffffffffffffffffffffffffffffffffffffff1681526020018281526020019350505050602060405180830381600087803b1515610a9357600080fd5b6102c65a03f11515610aa457600080fd5b505050604051805190501515141515610abc57600080fd5b600360003373ffffffffffffffffffffffffffffffffffffffff1673ffffffffffffffffffffffffffffffffffffffff16815260200190815260200160002060008460ff1660ff1681526020019081526020016000205484600360003373ffffffffffffffffffffffffffffffffffffffff1673ffffffffffffffffffffffffffffffffffffffff16815260200190815260200160002060008660ff1660ff168152602001908152602001600020540110151515610b7957600080fd5b83600360003373ffffffffffffffffffffffffffffffffffffffff1673ffffffffffffffffffffffffffffffffffffffff16815260200190815260200160002060008560ff1660ff168152602001908152602001600020600082825401925050819055508260ff163373ffffffffffffffffffffffffffffffffffffffff167fdef422a44f208b3108bd6fee4f92da9332641cdc3e5885e36ffc8b72d5498dc18642604051808381526020018281526020019250505060405180910390a35050505050565b80600260003373ffffffffffffffffffffffffffffffffffffffff1673ffffffffffffffffffffffffffffffffffffffff1681526020019081526020016000205410151515610c8c57600080fd5b34600260003373ffffffffffffffffffffffffffffffffffffffff1673ffffffffffffffffffffffffffffffffffffffff168152602001908152602001600020600082825403925050819055503373ffffffffffffffffffffffffffffffffffffffff166108fc829081150290604051600060405180830381858888f193505050501515610d1957600080fd5b3373ffffffffffffffffffffffffffffffffffffffff167fd5ca65e1ec4f4864fea7b9c5cb1ec3087a0dbf9c74641db3f6458edf445c40513442604051808381526020018281526020019250505060405180910390a250565b6000806000806000806000610d868a611c60565b9650600095506000600160008960ff1660ff168152602001908152602001600020600701541480610dd2575088600160008960ff1660ff16815260200190815260200160002060050154115b15610f89578888029550878610151515610deb57600080fd5b888610151515610dfa57600080fd5b85600260003373ffffffffffffffffffffffffffffffffffffffff1673ffffffffffffffffffffffffffffffffffffffff1681526020019081526020016000205410151515610e4857600080fd5b600086600260003373ffffffffffffffffffffffffffffffffffffffff1673ffffffffffffffffffffffffffffffffffffffff168152602001908152602001600020540310151515610e9957600080fd5b85600260003373ffffffffffffffffffffffffffffffffffffffff1673ffffffffffffffffffffffffffffffffffffffff16815260200190815260200160002060008282540392505081905550610ef2878a8a33613ac7565b3373ffffffffffffffffffffffffffffffffffffffff168760ff167f2ef51fa215957689865f55575d7d89840bee8fce54b23ef826fea1a304acdd3f8a8c600160008d60ff1660ff16815260200190815260200160002060080160008f81526020019081526020016000206004015460405180848152602001838152602001828152602001935050505060405180910390a3611c54565b60009450600160008860ff1660ff1681526020019081526020016000206005015493508792505b8884108015610fbf5750600083115b15611c3e57600160008860ff1660ff16815260200190815260200160002060090160008581526020019081526020016000206003015491505b600160008860ff1660ff16815260200190815260200160002060090160008581526020019081526020016000206004015482111580156110385750600083115b15611c1a57600160008860ff1660ff1681526020019081526020016000206009016000858152602001908152602001600020600201600083815260200190815260200160002060000154905082811115156115c457838102945084600260003373ffffffffffffffffffffffffffffffffffffffff1673ffffffffffffffffffffffffffffffffffffffff16815260200190815260200160002054101515156110e057600080fd5b600260003373ffffffffffffffffffffffffffffffffffffffff1673ffffffffffffffffffffffffffffffffffffffff1681526020019081526020016000205485600260003373ffffffffffffffffffffffffffffffffffffffff1673ffffffffffffffffffffffffffffffffffffffff16815260200190815260200160002054031015151561116f57600080fd5b84600260003373ffffffffffffffffffffffffffffffffffffffff1673ffffffffffffffffffffffffffffffffffffffff16815260200190815260200160002060008282540392505081905550600360003373ffffffffffffffffffffffffffffffffffffffff1673ffffffffffffffffffffffffffffffffffffffff16815260200190815260200160002060008860ff1660ff1681526020019081526020016000205481600360003373ffffffffffffffffffffffffffffffffffffffff1673ffffffffffffffffffffffffffffffffffffffff16815260200190815260200160002060008a60ff1660ff16815260200190815260200160002054011015151561127957600080fd5b60026000600160008a60ff1660ff1681526020019081526020016000206009016000878152602001908152602001600020600201600085815260200190815260200160002060010160009054906101000a900473ffffffffffffffffffffffffffffffffffffffff1673ffffffffffffffffffffffffffffffffffffffff1673ffffffffffffffffffffffffffffffffffffffff168152602001908152602001600020548560026000600160008c60ff1660ff1681526020019081526020016000206009016000898152602001908152602001600020600201600087815260200190815260200160002060010160009054906101000a900473ffffffffffffffffffffffffffffffffffffffff1673ffffffffffffffffffffffffffffffffffffffff1673ffffffffffffffffffffffffffffffffffffffff1681526020019081526020016000205401101515156113d057600080fd5b80600360003373ffffffffffffffffffffffffffffffffffffffff1673ffffffffffffffffffffffffffffffffffffffff16815260200190815260200160002060008960ff1660ff168152602001908152602001600020600082825401925050819055506000600160008960ff1660ff16815260200190815260200160002060090160008681526020019081526020016000206002016000848152602001908152602001600020600001819055508460026000600160008b60ff1660ff1681526020019081526020016000206009016000888152602001908152602001600020600201600086815260200190815260200160002060010160009054906101000a900473ffffffffffffffffffffffffffffffffffffffff1673ffffffffffffffffffffffffffffffffffffffff1673ffffffffffffffffffffffffffffffffffffffff16815260200190815260200160002060008282540192505081905550600160008860ff1660ff1681526020019081526020016000206009016000858152602001908152602001600020600301600081548092919060010191905055508660ff167fcbfa5edcd918ef1ec42746c71ac83c456f37330c83a22e44d6cfdca22d56471082868560405180848152602001838152602001828152602001935050505060405180910390a28083039250611a05565b82600160008960ff1660ff168152602001908152602001600020600901600086815260200190815260200160002060020160008481526020019081526020016000206000015411151561161657600080fd5b8383029550600260003373ffffffffffffffffffffffffffffffffffffffff1673ffffffffffffffffffffffffffffffffffffffff1681526020019081526020016000205486600260003373ffffffffffffffffffffffffffffffffffffffff1673ffffffffffffffffffffffffffffffffffffffff1681526020019081526020016000205403111515156116aa57600080fd5b85600260003373ffffffffffffffffffffffffffffffffffffffff1673ffffffffffffffffffffffffffffffffffffffff1681526020019081526020016000206000828254039250508190555060026000600160008a60ff1660ff1681526020019081526020016000206009016000878152602001908152602001600020600201600085815260200190815260200160002060010160009054906101000a900473ffffffffffffffffffffffffffffffffffffffff1673ffffffffffffffffffffffffffffffffffffffff1673ffffffffffffffffffffffffffffffffffffffff168152602001908152602001600020548660026000600160008c60ff1660ff1681526020019081526020016000206009016000898152602001908152602001600020600201600087815260200190815260200160002060010160009054906101000a900473ffffffffffffffffffffffffffffffffffffffff1673ffffffffffffffffffffffffffffffffffffffff1673ffffffffffffffffffffffffffffffffffffffff16815260200190815260200160002054011015151561184e57600080fd5b82600160008960ff1660ff16815260200190815260200160002060090160008681526020019081526020016000206002016000848152602001908152602001600020600001600082825403925050819055508560026000600160008b60ff1660ff1681526020019081526020016000206009016000888152602001908152602001600020600201600086815260200190815260200160002060010160009054906101000a900473ffffffffffffffffffffffffffffffffffffffff1673ffffffffffffffffffffffffffffffffffffffff1673ffffffffffffffffffffffffffffffffffffffff1681526020019081526020016000206000828254019250508190555082600360003373ffffffffffffffffffffffffffffffffffffffff1673ffffffffffffffffffffffffffffffffffffffff16815260200190815260200160002060008960ff1660ff16815260200190815260200160002060008282540192505081905550600092508660ff167fcbfa5edcd918ef1ec42746c71ac83c456f37330c83a22e44d6cfdca22d56471084868560405180848152602001838152602001828152602001935050505060405180910390a25b600160008860ff1660ff16815260200190815260200160002060090160008581526020019081526020016000206004015482148015611a8857506000600160008960ff1660ff1681526020019081526020016000206009016000868152602001908152602001600020600201600084815260200190815260200160002060000154145b15611c0d57600160008860ff1660ff1681526020019081526020016000206007016000815480929190600190039190505550600160008860ff1660ff168152602001908152602001600020600901600085815260200190815260200160002060000154841480611b2857506000600160008960ff1660ff168152602001908152602001600020600801600086815260200190815260200160002060000154145b15611b54576000600160008960ff1660ff16815260200190815260200160002060050181905550611c0c565b600160008860ff1660ff168152602001908152602001600020600901600085815260200190815260200160002060000154600160008960ff1660ff168152602001908152602001600020600501819055506000600160008960ff1660ff1681526020019081526020016000206009016000600160008b60ff1660ff1681526020019081526020016000206008016000888152602001908152602001600020600001548152602001908152602001600020600101819055505b5b8180600101925050610ff8565b600160008860ff1660ff168152602001908152602001600020600501549350610fb0565b6000831115611c5357611c528a8a85610d72565b5b5b50505050505050505050565b600080600090505b6000809054906101000a900460ff1660ff168160ff161015611e365773__Utils_________________________________6313d1995084600160008560ff1660ff1681526020019081526020016000206001016000604051602001526040518363ffffffff167c0100000000000000000000000000000000000000000000000000000000028152600401808060200180602001838103835285818151815260200191508051906020019080838360005b83811015611d33578082015181840152602081019050611d18565b50505050905090810190601f168015611d605780820380516001836020036101000a031916815260200191505b50838103825284818154600181600116156101000203166002900481526020019150805460018160011615610100020316600290048015611de25780601f10611db757610100808354040283529160200191611de2565b820191906000526020600020905b815481529060010190602001808311611dc557829003601f168201915b505094505050505060206040518083038186803b1515611e0157600080fd5b6102c65a03f41515611e1257600080fd5b5050506040518051905015611e2957809150611e3b565b8080600101915050611c68565b600091505b50919050565b611e49614345565b611e51614345565b6000611e5b614345565b611e63614345565b6000806000806000611e748b611c60565b9750600160008960ff1660ff16815260200190815260200160002060070154604051805910611ea05750595b90808252806020026020018201604052509650600160008960ff1660ff16815260200190815260200160002060070154604051805910611edd5750595b90808252806020026020018201604052509550600160008960ff1660ff168152602001908152602001600020600501549450600093506000600160008a60ff1660ff168152602001908152602001600020600501541115612030575b600160008960ff1660ff168152602001908152602001600020600601548511151561202f57848785815181101515611f6d57fe5b906020019060200201818152505060009250600160008960ff1660ff16815260200190815260200160002060090160008681526020019081526020016000209150816003015490505b8160040154811015611fec5781600201600082815260200190815260200160002060000154830192508080600101915050611fb6565b828685815181101515611ffb57fe5b906020019060200201818152505060008260000154141561201b5761202f565b816000015494508380600101945050611f39565b5b8686995099505050505050505050915091565b60008060008060008060006120578a611c60565b965060009550600094506000600160008960ff1660ff1681526020019081526020016000206004015414806120a7575088600160008960ff1660ff16815260200190815260200160002060020154105b156123325788880295508786101515156120c057600080fd5b8886101515156120cf57600080fd5b87600360003373ffffffffffffffffffffffffffffffffffffffff1673ffffffffffffffffffffffffffffffffffffffff16815260200190815260200160002060008960ff1660ff168152602001908152602001600020541015151561213457600080fd5b600088600360003373ffffffffffffffffffffffffffffffffffffffff1673ffffffffffffffffffffffffffffffffffffffff16815260200190815260200160002060008a60ff1660ff16815260200190815260200160002054031015151561219c57600080fd5b600260003373ffffffffffffffffffffffffffffffffffffffff1673ffffffffffffffffffffffffffffffffffffffff1681526020019081526020016000205486600260003373ffffffffffffffffffffffffffffffffffffffff1673ffffffffffffffffffffffffffffffffffffffff16815260200190815260200160002054011015151561222b57600080fd5b87600360003373ffffffffffffffffffffffffffffffffffffffff1673ffffffffffffffffffffffffffffffffffffffff16815260200190815260200160002060008960ff1660ff1681526020019081526020016000206000828254039250508190555061229b878a8a33613f05565b3373ffffffffffffffffffffffffffffffffffffffff168760ff167fc7d136f10bcb424de2ff60d5473d863ed2fdcd5d352e045d89ee9581f54f6afb8a8c600160008d60ff1660ff16815260200190815260200160002060090160008f81526020019081526020016000206004015460405180848152602001838152602001828152602001935050505060405180910390a36130e9565b600160008860ff1660ff1681526020019081526020016000206002015493508792505b8884101580156123655750600083115b156130d357600160008860ff1660ff16815260200190815260200160002060080160008581526020019081526020016000206003015491505b600160008860ff1660ff16815260200190815260200160002060080160008581526020019081526020016000206004015482111580156123de5750600083115b156130af57600160008860ff1660ff16815260200190815260200160002060080160008581526020019081526020016000206002016000838152602001908152602001600020600001549050828111151561297057838102945080600360003373ffffffffffffffffffffffffffffffffffffffff1673ffffffffffffffffffffffffffffffffffffffff16815260200190815260200160002060008960ff1660ff168152602001908152602001600020541015151561249d57600080fd5b80600360003373ffffffffffffffffffffffffffffffffffffffff1673ffffffffffffffffffffffffffffffffffffffff16815260200190815260200160002060008960ff1660ff16815260200190815260200160002060008282540392505081905550600081600360003373ffffffffffffffffffffffffffffffffffffffff1673ffffffffffffffffffffffffffffffffffffffff16815260200190815260200160002060008a60ff1660ff16815260200190815260200160002054031015151561256957600080fd5b60036000600160008a60ff1660ff1681526020019081526020016000206008016000878152602001908152602001600020600201600085815260200190815260200160002060010160009054906101000a900473ffffffffffffffffffffffffffffffffffffffff1673ffffffffffffffffffffffffffffffffffffffff1673ffffffffffffffffffffffffffffffffffffffff16815260200190815260200160002060008860ff1660ff168152602001908152602001600020548560036000600160008c60ff1660ff1681526020019081526020016000206008016000898152602001908152602001600020600201600087815260200190815260200160002060010160009054906101000a900473ffffffffffffffffffffffffffffffffffffffff1673ffffffffffffffffffffffffffffffffffffffff1673ffffffffffffffffffffffffffffffffffffffff16815260200190815260200160002060008a60ff1660ff16815260200190815260200160002054011115156126ed57600080fd5b600260003373ffffffffffffffffffffffffffffffffffffffff1673ffffffffffffffffffffffffffffffffffffffff1681526020019081526020016000205485600260003373ffffffffffffffffffffffffffffffffffffffff1673ffffffffffffffffffffffffffffffffffffffff16815260200190815260200160002054011015151561277c57600080fd5b8060036000600160008b60ff1660ff1681526020019081526020016000206008016000888152602001908152602001600020600201600086815260200190815260200160002060010160009054906101000a900473ffffffffffffffffffffffffffffffffffffffff1673ffffffffffffffffffffffffffffffffffffffff1673ffffffffffffffffffffffffffffffffffffffff16815260200190815260200160002060008960ff1660ff168152602001908152602001600020600082825401925050819055506000600160008960ff1660ff168152602001908152602001600020600801600086815260200190815260200160002060020160008481526020019081526020016000206000018190555084600260003373ffffffffffffffffffffffffffffffffffffffff1673ffffffffffffffffffffffffffffffffffffffff16815260200190815260200160002060008282540192505081905550600160008860ff1660ff1681526020019081526020016000206008016000858152602001908152602001600020600301600081548092919060010191905055508660ff167fcbfa5edcd918ef1ec42746c71ac83c456f37330c83a22e44d6cfdca22d56471082868560405180848152602001838152602001828152602001935050505060405180910390a28083039250612e7f565b600083820311151561298157600080fd5b838302955082600360003373ffffffffffffffffffffffffffffffffffffffff1673ffffffffffffffffffffffffffffffffffffffff16815260200190815260200160002060008960ff1660ff16815260200190815260200160002054101515156129eb57600080fd5b82600360003373ffffffffffffffffffffffffffffffffffffffff1673ffffffffffffffffffffffffffffffffffffffff16815260200190815260200160002060008960ff1660ff1681526020019081526020016000206000828254039250508190555082600360003373ffffffffffffffffffffffffffffffffffffffff1673ffffffffffffffffffffffffffffffffffffffff16815260200190815260200160002060008960ff1660ff1681526020019081526020016000205410151515612ab457600080fd5b600260003373ffffffffffffffffffffffffffffffffffffffff1673ffffffffffffffffffffffffffffffffffffffff1681526020019081526020016000205486600260003373ffffffffffffffffffffffffffffffffffffffff1673ffffffffffffffffffffffffffffffffffffffff168152602001908152602001600020540110151515612b4357600080fd5b60036000600160008a60ff1660ff1681526020019081526020016000206008016000878152602001908152602001600020600201600085815260200190815260200160002060010160009054906101000a900473ffffffffffffffffffffffffffffffffffffffff1673ffffffffffffffffffffffffffffffffffffffff1673ffffffffffffffffffffffffffffffffffffffff16815260200190815260200160002060008860ff1660ff168152602001908152602001600020548360036000600160008c60ff1660ff1681526020019081526020016000206008016000898152602001908152602001600020600201600087815260200190815260200160002060010160009054906101000a900473ffffffffffffffffffffffffffffffffffffffff1673ffffffffffffffffffffffffffffffffffffffff1673ffffffffffffffffffffffffffffffffffffffff16815260200190815260200160002060008a60ff1660ff168152602001908152602001600020540110151515612cc857600080fd5b82600160008960ff1660ff168152602001908152602001600020600801600086815260200190815260200160002060020160008481526020019081526020016000206000016000828254039250508190555082600260003373ffffffffffffffffffffffffffffffffffffffff1673ffffffffffffffffffffffffffffffffffffffff168152602001908152602001600020600082825401925050819055508260036000600160008b60ff1660ff1681526020019081526020016000206008016000888152602001908152602001600020600201600086815260200190815260200160002060010160009054906101000a900473ffffffffffffffffffffffffffffffffffffffff1673ffffffffffffffffffffffffffffffffffffffff1673ffffffffffffffffffffffffffffffffffffffff16815260200190815260200160002060008960ff1660ff168152602001908152602001600020600082825401925050819055508660ff167fcbfa5edcd918ef1ec42746c71ac83c456f37330c83a22e44d6cfdca22d56471084868560405180848152602001838152602001828152602001935050505060405180910390a2600092505b600160008860ff1660ff16815260200190815260200160002060080160008581526020019081526020016000206004015482148015612f0257506000600160008960ff1660ff1681526020019081526020016000206008016000868152602001908152602001600020600201600084815260200190815260200160002060000154145b156130a257600160008860ff1660ff1681526020019081526020016000206004016000815480929190600190039190505550600160008860ff1660ff168152602001908152602001600020600801600085815260200190815260200160002060010154841480612fa257506000600160008960ff1660ff168152602001908152602001600020600801600086815260200190815260200160002060010154145b15612fce576000600160008960ff1660ff168152602001908152602001600020600201819055506130a1565b600160008860ff1660ff168152602001908152602001600020600801600085815260200190815260200160002060010154600160008960ff1660ff16815260200190815260200160002060020181905550600160008860ff1660ff16815260200190815260200160002060020154600160008960ff1660ff1681526020019081526020016000206008016000600160008b60ff1660ff1681526020019081526020016000206008016000888152602001908152602001600020600101548152602001908152602001600020600001819055505b5b818060010192505061239e565b600160008860ff1660ff168152602001908152602001600020600201549350612355565b60008311156130e8576130e78a8a85612043565b5b5b50505050505050505050565b60008061310183611c60565b905060008160ff161415915050919050565b600260003373ffffffffffffffffffffffffffffffffffffffff1673ffffffffffffffffffffffffffffffffffffffff1681526020019081526020016000205434600260003373ffffffffffffffffffffffffffffffffffffffff1673ffffffffffffffffffffffffffffffffffffffff1681526020019081526020016000205401101515156131a257600080fd5b34600260003373ffffffffffffffffffffffffffffffffffffffff1673ffffffffffffffffffffffffffffffffffffffff168152602001908152602001600020600082825401925050819055503373ffffffffffffffffffffffffffffffffffffffff167f1d57945c1033a96907a78f6e0ebf6a03815725dac25f33cc806558670344ac883442604051808381526020018281526020019250505060405180910390a2565b6000613252836130f5565b15151561325e57600080fd5b6000809054906101000a900460ff1660ff1660016000809054906101000a900460ff160160ff1611151561329157600080fd5b60008081819054906101000a900460ff168092919060010191906101000a81548160ff021916908360ff1602179055505082600160008060009054906101000a900460ff1660ff1660ff1681526020019081526020016000206001019080519060200190613300929190614359565b5081600160008060009054906101000a900460ff1660ff1660ff16815260200190815260200160002060000160006101000a81548173ffffffffffffffffffffffffffffffffffffffff021916908373ffffffffffffffffffffffffffffffffffffffff1602179055507f10696c7897adafa7ed4e0a759d05692156133e1f6f2b30d90ef244a5503b1df66000809054906101000a900460ff168442604051808460ff16815260200180602001838152602001828103825284818151815260200191508051906020019080838360005b838110156133eb5780820151818401526020810190506133d0565b50505050905090810190601f1680156134185780820380516001836020036101000a031916815260200191505b5094505050505060405180910390a16001905092915050565b60008061343d83611c60565b9050600160008260ff1660ff16815260200190815260200160002060000160009054906101000a900473ffffffffffffffffffffffffffffffffffffffff16915050919050565b600080600061349285611c60565b9250600160008460ff1660ff16815260200190815260200160002060000160009054906101000a900473ffffffffffffffffffffffffffffffffffffffff169150600073ffffffffffffffffffffffffffffffffffffffff168273ffffffffffffffffffffffffffffffffffffffff161415151561350f57600080fd5b83600360003373ffffffffffffffffffffffffffffffffffffffff1673ffffffffffffffffffffffffffffffffffffffff16815260200190815260200160002060008560ff1660ff168152602001908152602001600020541015151561357457600080fd5b83600360003373ffffffffffffffffffffffffffffffffffffffff1673ffffffffffffffffffffffffffffffffffffffff16815260200190815260200160002060008560ff1660ff16815260200190815260200160002060008282540392505081905550819050600115158173ffffffffffffffffffffffffffffffffffffffff1663a9059cbb33876000604051602001526040518363ffffffff167c0100000000000000000000000000000000000000000000000000000000028152600401808373ffffffffffffffffffffffffffffffffffffffff1673ffffffffffffffffffffffffffffffffffffffff16815260200182815260200192505050602060405180830381600087803b151561368a57600080fd5b6102c65a03f1151561369b57600080fd5b5050506040518051905015151415156136b357600080fd5b8260ff163373ffffffffffffffffffffffffffffffffffffffff167f51160a0419cace6072cf0f4d65c046252a02c00f35ba16855ec4442577c6e5688642604051808381526020018281526020019250505060405180910390a35050505050565b6000806000806000806137268a611c60565b955088156138bf57600160008760ff1660ff168152602001908152602001600020600901600089815260200190815260200160002094503373ffffffffffffffffffffffffffffffffffffffff1685600201600089815260200190815260200160002060010160009054906101000a900473ffffffffffffffffffffffffffffffffffffffff1673ffffffffffffffffffffffffffffffffffffffff161415156137cf57600080fd5b846002016000888152602001908152602001600020600001549350600360003373ffffffffffffffffffffffffffffffffffffffff1673ffffffffffffffffffffffffffffffffffffffff16815260200190815260200160002060008760ff1660ff168152602001908152602001600020549250828484011015151561385457600080fd5b83830192506000856002016000898152602001908152602001600020600001819055508560ff167fffac5f4941e92bc6814610a825eeff0ae9bb4a17d47c0e2353c6889b2b550fb88989604051808381526020018281526020019250505060405180910390a2613abb565b600160008760ff1660ff168152602001908152602001600020600801600089815260200190815260200160002091503373ffffffffffffffffffffffffffffffffffffffff1682600201600089815260200190815260200160002060010160009054906101000a900473ffffffffffffffffffffffffffffffffffffffff1673ffffffffffffffffffffffffffffffffffffffff1614151561396057600080fd5b8782600201600089815260200190815260200160002060000154029050600260003373ffffffffffffffffffffffffffffffffffffffff1673ffffffffffffffffffffffffffffffffffffffff1681526020019081526020016000205481600260003373ffffffffffffffffffffffffffffffffffffffff1673ffffffffffffffffffffffffffffffffffffffff168152602001908152602001600020540110151515613a0c57600080fd5b80600260003373ffffffffffffffffffffffffffffffffffffffff1673ffffffffffffffffffffffffffffffffffffffff168152602001908152602001600020600082825401925050819055506000826002016000898152602001908152602001600020600001819055508560ff167f5f2fdca15d8ab2ad3f590066add3054471b3603ca44a66f12e124e9c97ec19558989604051808381526020018281526020019250505060405180910390a25b50505050505050505050565b6000806000806000600160008a60ff1660ff16815260200190815260200160002060080160008981526020019081526020016000209450846004016000815480929190600101919050555060408051908101604052808881526020018773ffffffffffffffffffffffffffffffffffffffff16815250856002016000876004015481526020019081526020016000206000820151816000015560208201518160010160006101000a81548173ffffffffffffffffffffffffffffffffffffffff021916908373ffffffffffffffffffffffffffffffffffffffff160217905550905050600185600401541415613efa5760018560030181905550600160008a60ff1660ff16815260200190815260200160002060040160008154809291906001019190505550600160008a60ff1660ff168152602001908152602001600020600201549350600160008a60ff1660ff1681526020019081526020016000206003015492506000831480613c3957508783115b15613cef576000841415613c805787600160008b60ff1660ff1681526020019081526020016000206002018190555087856000018190555060008560010181905550613cc9565b87600160008b60ff1660ff168152602001908152602001600020600801600085815260200190815260200160002060010181905550828560000181905550600085600101819055505b87600160008b60ff1660ff16815260200190815260200160002060030181905550613ef9565b87841015613d645787600160008b60ff1660ff16815260200190815260200160002060080160008681526020019081526020016000206000018190555087856000018190555083856001018190555087600160008b60ff1660ff16815260200190815260200160002060020181905550613ef8565b600160008a60ff1660ff168152602001908152602001600020600201549150600090505b600082118015613d96575080155b15613ef7578782108015613dd9575087600160008b60ff1660ff168152602001908152602001600020600801600084815260200190815260200160002060000154115b15613ebf57818560010181905550600160008a60ff1660ff168152602001908152602001600020600801600083815260200190815260200160002060000154856000018190555087600160008b60ff1660ff1681526020019081526020016000206008016000600160008d60ff1660ff16815260200190815260200160002060080160008681526020019081526020016000206000015481526020019081526020016000206001018190555087600160008b60ff1660ff168152602001908152602001600020600801600084815260200190815260200160002060000181905550600190505b600160008a60ff1660ff1681526020019081526020016000206008016000838152602001908152602001600020600101549150613d88565b5b5b5b505050505050505050565b6000806000806000600160008a60ff1660ff16815260200190815260200160002060090160008981526020019081526020016000209450846004016000815480929190600101919050555060408051908101604052808881526020018773ffffffffffffffffffffffffffffffffffffffff16815250856002016000876004015481526020019081526020016000206000820151816000015560208201518160010160006101000a81548173ffffffffffffffffffffffffffffffffffffffff021916908373ffffffffffffffffffffffffffffffffffffffff16021790555090505060018560040154141561433a5760018560030181905550600160008a60ff1660ff16815260200190815260200160002060070160008154809291906001019190505550600160008a60ff1660ff168152602001908152602001600020600501549350600160008a60ff1660ff168152602001908152602001600020600601549250600083148061407757508783105b1561412e5760008414156140bf5787600160008b60ff1660ff168152602001908152602001600020600501819055506000856000018190555060008560010181905550614108565b87600160008b60ff1660ff168152602001908152602001600020600901600085815260200190815260200160002060000181905550828560010181905550600085600001819055505b87600160008b60ff1660ff16815260200190815260200160002060060181905550614339565b878411156141a45787600160008b60ff1660ff1681526020019081526020016000206009016000868152602001908152602001600020600101819055508385600001819055506000856001018190555087600160008b60ff1660ff16815260200190815260200160002060050181905550614338565b600160008a60ff1660ff168152602001908152602001600020600501549150600090505b6000821180156141d6575080155b15614337578782108015614219575087600160008b60ff1660ff168152602001908152602001600020600901600084815260200190815260200160002060000154115b156142ff57818560010181905550600160008a60ff1660ff168152602001908152602001600020600901600083815260200190815260200160002060000154856000018190555087600160008b60ff1660ff1681526020019081526020016000206009016000600160008d60ff1660ff16815260200190815260200160002060090160008681526020019081526020016000206000015481526020019081526020016000206001018190555087600160008b60ff1660ff168152602001908152602001600020600901600084815260200190815260200160002060000181905550600190505b600160008a60ff1660ff16815260200190815260200160002060090160008381526020019081526020016000206000015491506141c8565b5b5b5b505050505050505050565b602060405190810160405280600081525090565b828054600181600116156101000203166002900490600052602060002090601f016020900481019282601f1061439a57805160ff19168380011785556143c8565b828001600101855582156143c8579182015b828111156143c75782518255916020019190600101906143ac565b5b5090506143d591906143d9565b5090565b6143fb91905b808211156143f75760008160009055506001016143df565b5090565b905600a165627a7a723058209ce6d76a9a64a38ee0ef7cde5498a6f8fd0d2ef2918e13304e19fe3e66e433f20029",
  "source": "pragma solidity ^0.4.18;\n\nimport \"./library/Utils.sol\";\nimport \"./ERC20/ERC20.sol\";\n\ncontract Exchange {\n\n    struct Offer {\n        uint amount;\n        address who;\n    }\n\n    struct OrderBook {\n        uint higherPrice;\n        uint lowerPrice;\n\n        mapping(uint => Offer) offers;\n\n        uint offersKey;\n        uint offersLength;\n    }\n\n    struct Token {\n\n        address tokenContract;\n        string symbolName;\n\n        uint currentBuyPrice;\n        uint lowestBuyPrice;\n        uint amountBuyPrices;\n\n        uint currentSellPrice;\n        uint highestSellPrice;\n        uint amountSellPrices;\n\n        mapping(uint => OrderBook) buyBook;\n\n        mapping(uint => OrderBook) sellBook;\n    }\n\n    uint8 symbolNameIndex;\n    mapping(uint8 => Token) tokens;\n\n    // Balance Management \n\n    mapping(address => uint) etherBalance;\n    mapping(address => mapping(uint8 => uint)) tokenBalance;\n\n\n    // -------------------------------Token Management  -------------------------------\n\n    function addToken(string _symbolName, address _tokenAddress) returns(bool) {\n        require(!hasToken(_symbolName));\n        require(symbolNameIndex + 1 > symbolNameIndex);\n        symbolNameIndex++;\n\n        tokens[symbolNameIndex].symbolName = _symbolName;\n        tokens[symbolNameIndex].tokenContract = _tokenAddress;\n        TokenAddedToExchange(symbolNameIndex, _symbolName, now);\n        return true;\n    }\n\n    event TokenAddedToExchange(uint _symbolIndex, string _symbolName, uint _timestamp);\n\n\n    function getTokenAddress(string _symbolName) public returns(address) {\n        uint8 indexValue = getSymbolIndex(_symbolName);\n        return tokens[indexValue].tokenContract;\n    }\n\n    function getSymbolIndex(string _symbolName) public returns(uint8) {\n        for (var index = 0; index < symbolNameIndex; index++) {\n            if (Utils.stringsEqual(_symbolName, tokens[index].symbolName)) {\n                return index;\n            }\n        }\n        return 0;\n    }\n\n    function hasToken(string symbolName) constant returns(bool) {\n        uint8 index = getSymbolIndex(symbolName);\n        return (index != 0);\n    }\n\n    // -------------------------------Balance Management  -------------------------------\n\n    function depositEther() payable {\n        require((etherBalance[msg.sender] + msg.value) >= etherBalance[msg.sender]);\n        etherBalance[msg.sender] += msg.value;\n        EtherReceived(msg.sender, msg.value, now);\n    }\n\n    function withdrawEther(uint amountInWei) {\n        require((etherBalance[msg.sender]) >= amountInWei);\n        etherBalance[msg.sender] -= msg.value;\n        msg.sender.transfer(amountInWei);\n        EtherWithdrawn(msg.sender, msg.value, now);\n    }\n\n    function depositToken(string _symbolName, uint _amount) payable {\n        uint8 symbolNameIndex = getSymbolIndex(_symbolName);\n        address tokenAddress = tokens[symbolNameIndex].tokenContract;\n        require(tokenAddress != address(0));\n        ERC20 currentToken = ERC20(tokenAddress);\n        require(currentToken.transferFrom(msg.sender, address(this), _amount) == true);\n        require((tokenBalance[msg.sender][symbolNameIndex] + _amount) >= tokenBalance[msg.sender][symbolNameIndex]);\n        tokenBalance[msg.sender][symbolNameIndex] += _amount;\n        TokenReceived(msg.sender, symbolNameIndex, _amount, now);\n    }\n\n    function withdrawToken(string _symbolName, uint _amount) {\n        uint8 symbolNameIndex = getSymbolIndex(_symbolName);\n        address tokenAddress = tokens[symbolNameIndex].tokenContract;\n        require(tokenAddress != address(0));\n        require((tokenBalance[msg.sender][symbolNameIndex]) >= _amount);\n        tokenBalance[msg.sender][symbolNameIndex] -= _amount;\n        ERC20 currentToken = ERC20(tokenAddress);\n        require(currentToken.transfer(msg.sender, _amount) == true);\n        TokenWithdrawn(msg.sender, symbolNameIndex, _amount, now);\n    }\n    //events declaration \n\n    event EtherReceived(address indexed _from, uint _amount, uint _timestamp);\n    event EtherWithdrawn(address indexed _to, uint _amount, uint _timestamp);\n\n    event TokenReceived(address indexed _from, uint indexed _symbolIndex, uint _amount, uint _timestamp);\n    event TokenWithdrawn(address indexed _to, uint indexed _symbolIndex, uint _amount, uint _timestamp);\n\n\n    // -------------------------------Order Management  -------------------------------\n\n    //events declaration \n    // buy events\n    event BuyOrderCanceled(uint indexed _symbolIndex, uint _priceInWei, uint _orderKey);\n    //event BuyOrderFulfilled(uint indexed _symbolIndex,uint _amount, uint _priceInWei, uint _orderKey);\n    event LimitBuyOrderCreated(uint indexed _symbolIndex, address indexed _who, uint _amount, uint _priceInWei, uint _orderKey);\n    // sell events\n    event LimitSellOrderCreated(uint indexed _symbolIndex, address indexed _who, uint _amount, uint _priceInWei, uint _orderKey);\n    event SellOrderCanceled(uint indexed _symbolIndex, uint _priceInWei, uint _orderKey);\n    event SellOrderFulfilled(uint indexed _symbolIndex, uint _amount, uint _priceInWei, uint _orderKey);\n\n    function getBuyOrderBook(string _symbolName) constant returns(uint[], uint[]) {\n        uint8 symbolNameIndex = getSymbolIndex(_symbolName);\n\n        uint[] memory priceBuyArray = new uint[](tokens[symbolNameIndex].amountBuyPrices);\n        uint[] memory volumeBuyArray = new uint[](tokens[symbolNameIndex].amountBuyPrices);\n\n        uint currentLowestOffer = tokens[symbolNameIndex].lowestBuyPrice;\n\n        uint counter = 0;\n\n        if (tokens[symbolNameIndex].currentBuyPrice > 0) {\n            while (currentLowestOffer <= tokens[symbolNameIndex].currentBuyPrice) {\n                priceBuyArray[counter] = currentLowestOffer;\n                uint volumeAtThisPrice = 0;\n                var currentBuyBook = tokens[symbolNameIndex].buyBook[currentLowestOffer];\n                uint offersKey = currentBuyBook.offersKey;\n\n                while (offersKey < currentBuyBook.offersLength) {\n                    volumeAtThisPrice += currentBuyBook.offers[offersKey].amount;\n                    offersKey++;\n                }\n                volumeBuyArray[counter] = volumeAtThisPrice;\n\n                if (currentLowestOffer == currentBuyBook.higherPrice) {\n                    break;\n                } else {\n                    currentLowestOffer = currentBuyBook.higherPrice;\n                }\n                counter++;\n            }\n        }\n        return (priceBuyArray, volumeBuyArray);\n    }\n\n    function getSellOrderBook(string _symbolName) constant returns(uint[], uint[]) {\n        uint8 symbolNameIndex = getSymbolIndex(_symbolName);\n\n        uint[] memory priceSellArray = new uint[](tokens[symbolNameIndex].amountSellPrices);\n        uint[] memory volumeSellArray = new uint[](tokens[symbolNameIndex].amountSellPrices);\n\n        uint currentSellOffer = tokens[symbolNameIndex].currentSellPrice;\n\n        uint counter = 0;\n\n        if (tokens[symbolNameIndex].currentSellPrice > 0) {\n            while (currentSellOffer <= tokens[symbolNameIndex].highestSellPrice) {\n                priceSellArray[counter] = currentSellOffer;\n                uint volumeAtThisPrice = 0;\n                var currentSellBook = tokens[symbolNameIndex].sellBook[currentSellOffer];\n                uint offersKey = currentSellBook.offersKey;\n\n                while (offersKey < currentSellBook.offersLength) {\n                    volumeAtThisPrice += currentSellBook.offers[offersKey].amount;\n                    offersKey++;\n                }\n                volumeSellArray[counter] = volumeAtThisPrice;\n\n                if (currentSellBook.higherPrice == 0) {\n                    break;\n                } else {\n                    currentSellOffer = currentSellBook.higherPrice;\n                }\n                counter++;\n            }\n        }\n        return (priceSellArray, volumeSellArray);\n    }\n\n    function cancelOrder(string _symbolName, bool _isSellOrder, uint _priceInWei, uint _offerKey) {\n        uint8 symbolNameIndex = getSymbolIndex(_symbolName);\n\n        if (_isSellOrder) {\n            var currentSellBook = tokens[symbolNameIndex].sellBook[_priceInWei];\n            require(currentSellBook.offers[_offerKey].who == msg.sender);\n            var tokenAmount = currentSellBook.offers[_offerKey].amount;\n            var currentTokenBalance = tokenBalance[msg.sender][symbolNameIndex];\n            require(currentTokenBalance + tokenAmount >= currentTokenBalance);\n\n            currentTokenBalance += tokenAmount;\n            currentSellBook.offers[_offerKey].amount = 0;\n            SellOrderCanceled(symbolNameIndex, _priceInWei, _offerKey);\n\n        } else {\n            var currentBuyBook = tokens[symbolNameIndex].buyBook[_priceInWei];\n            require(currentBuyBook.offers[_offerKey].who == msg.sender);\n            var etherRefund = currentBuyBook.offers[_offerKey].amount * _priceInWei;\n            require(etherBalance[msg.sender] + etherRefund >= etherBalance[msg.sender]);\n            etherBalance[msg.sender] += etherRefund;\n            currentBuyBook.offers[_offerKey].amount = 0;\n            BuyOrderCanceled(symbolNameIndex, _priceInWei, _offerKey);\n        }\n    }\n\n    function addBuyOffer(uint8 symbolNameIndex, uint _priceInWei, uint _amount, address who) internal {\n        var currentBuyBook = tokens[symbolNameIndex].buyBook[_priceInWei];\n        currentBuyBook.offersLength++;\n        currentBuyBook.offers[currentBuyBook.offersLength] = Offer(_amount, who);\n\n        if (currentBuyBook.offersLength == 1) {\n            currentBuyBook.offersKey = 1;\n            tokens[symbolNameIndex].amountBuyPrices++;\n            uint currentBuyPrice = tokens[symbolNameIndex].currentBuyPrice;\n            uint lowestBuyPrice = tokens[symbolNameIndex].lowestBuyPrice;\n\n            if ((lowestBuyPrice == 0) || (lowestBuyPrice > _priceInWei)) {\n                if (currentBuyPrice == 0) {\n                    tokens[symbolNameIndex].currentBuyPrice = _priceInWei;\n                    currentBuyBook.higherPrice = _priceInWei;\n                    currentBuyBook.lowerPrice = 0;\n                } else {\n                    tokens[symbolNameIndex].buyBook[lowestBuyPrice].lowerPrice = _priceInWei;\n                    currentBuyBook.higherPrice = lowestBuyPrice;\n                    currentBuyBook.lowerPrice = 0;\n                }\n                tokens[symbolNameIndex].lowestBuyPrice = _priceInWei;\n            } else if (currentBuyPrice < _priceInWei) {\n                tokens[symbolNameIndex].buyBook[currentBuyPrice].higherPrice = _priceInWei;\n                currentBuyBook.higherPrice = _priceInWei;\n                currentBuyBook.lowerPrice = currentBuyPrice;\n                tokens[symbolNameIndex].currentBuyPrice = _priceInWei;\n            } else {\n                uint  buyPrice = tokens[symbolNameIndex].currentBuyPrice ;\n                bool found  = false;\n                while((buyPrice > 0) && (!found) ) {\n                    if(buyPrice <  _priceInWei &&  tokens[symbolNameIndex].buyBook[buyPrice].higherPrice  > _priceInWei ) {\n                        currentBuyBook.lowerPrice = buyPrice;\n                        currentBuyBook.higherPrice = tokens[symbolNameIndex].buyBook[buyPrice].higherPrice;\n                        tokens[symbolNameIndex].buyBook[tokens[symbolNameIndex].buyBook[buyPrice].higherPrice].lowerPrice = _priceInWei;\n                        tokens[symbolNameIndex].buyBook[buyPrice].higherPrice = _priceInWei;\n                        found = true;\n                    }\n                    buyPrice = tokens[symbolNameIndex].buyBook[buyPrice].lowerPrice;\n                }\n            }\n        }\n    }\n\n    function addSellOffer(uint8 symbolNameIndex, uint _priceInWei, uint _amount, address who) internal {\n        \n        var currentSellBook = tokens[symbolNameIndex].sellBook[_priceInWei];\n        currentSellBook.offersLength++;\n        currentSellBook.offers[currentSellBook.offersLength] = Offer(_amount, who);\n\n        if (currentSellBook.offersLength == 1) {\n            currentSellBook.offersKey = 1;\n            tokens[symbolNameIndex].amountSellPrices++;\n            uint currentSellPrice = tokens[symbolNameIndex].currentSellPrice;\n            uint highestSellPrice = tokens[symbolNameIndex].highestSellPrice;\n\n            if ((highestSellPrice == 0) || (highestSellPrice < _priceInWei)) {\n                if (currentSellPrice == 0) {\n                    tokens[symbolNameIndex].currentSellPrice = _priceInWei;\n                    currentSellBook.higherPrice = 0;\n                    currentSellBook.lowerPrice = 0;\n                } else {\n                    tokens[symbolNameIndex].sellBook[highestSellPrice].higherPrice = _priceInWei;\n                    currentSellBook.lowerPrice = highestSellPrice;\n                    currentSellBook.higherPrice = 0;\n                }\n                tokens[symbolNameIndex].highestSellPrice = _priceInWei;\n            } else if (currentSellPrice > _priceInWei) {\n                tokens[symbolNameIndex].sellBook[currentSellPrice].lowerPrice = _priceInWei;\n                currentSellBook.higherPrice = currentSellPrice;\n                currentSellBook.lowerPrice = 0;\n                tokens[symbolNameIndex].currentSellPrice = _priceInWei;\n            } else {\n                uint  sellPrice = tokens[symbolNameIndex].currentSellPrice ;\n                bool found  = false;\n                while((sellPrice > 0) && (!found) ) {\n                    if(sellPrice <  _priceInWei &&  tokens[symbolNameIndex].sellBook[sellPrice].higherPrice  > _priceInWei ) {\n                        currentSellBook.lowerPrice = sellPrice;\n                        currentSellBook.higherPrice = tokens[symbolNameIndex].sellBook[sellPrice].higherPrice;\n                       \n                        tokens[symbolNameIndex].sellBook[tokens[symbolNameIndex].sellBook[sellPrice].higherPrice].lowerPrice = _priceInWei;\n                        tokens[symbolNameIndex].sellBook[sellPrice].higherPrice = _priceInWei;\n                        found = true;\n                    }\n                    sellPrice = tokens[symbolNameIndex].sellBook[sellPrice].higherPrice;\n                }\n            }\n        }\n    }\n\n\n    function buyToken(string _symbolName, uint _priceInWei, uint _amount) {\n        uint8 symbolNameIndex = getSymbolIndex(_symbolName);\n        uint requiredEtherAmount = 0;\n\n        if(tokens[symbolNameIndex].amountSellPrices==0 || tokens[symbolNameIndex].currentSellPrice > _priceInWei) {\n            requiredEtherAmount = _amount * _priceInWei;\n            require(requiredEtherAmount >= _amount);\n            require(requiredEtherAmount >= _priceInWei);\n            require(etherBalance[msg.sender] >= requiredEtherAmount);\n            require(etherBalance[msg.sender] - requiredEtherAmount >= 0);\n            \n            etherBalance[msg.sender] -= requiredEtherAmount;\n            addBuyOffer( symbolNameIndex, _priceInWei, _amount, msg.sender);\n            LimitBuyOrderCreated(symbolNameIndex, msg.sender, _amount, _priceInWei, tokens[symbolNameIndex].buyBook[_priceInWei].offersLength);\n        } else {\n            uint totalAvailableEther = 0;\n            uint currentSellPrice = tokens[symbolNameIndex].currentSellPrice;\n            uint amountNecessary = _amount;\n            uint offersKey ;\n\n            while(currentSellPrice < _priceInWei && amountNecessary > 0) {\n                offersKey = tokens[symbolNameIndex].sellBook[currentSellPrice].offersKey;\n                while(offersKey <= tokens[symbolNameIndex].sellBook[currentSellPrice].offersLength && amountNecessary > 0){\n                    uint volumePriceFromAddress = tokens[symbolNameIndex].sellBook[currentSellPrice].offers[offersKey].amount;\n                    if(volumePriceFromAddress <= amountNecessary) {\n                        totalAvailableEther = volumePriceFromAddress * currentSellPrice;\n                        require(etherBalance[msg.sender] >= totalAvailableEther);\n                        require(etherBalance[msg.sender] - totalAvailableEther >= etherBalance[msg.sender]);\n                        etherBalance[msg.sender] -= totalAvailableEther;\n                        require((tokenBalance[msg.sender][symbolNameIndex] + volumePriceFromAddress) >= (tokenBalance[msg.sender][symbolNameIndex]));\n                        require(etherBalance[tokens[symbolNameIndex].sellBook[currentSellPrice].offers[offersKey].who] + totalAvailableEther >= etherBalance[tokens[symbolNameIndex].sellBook[currentSellPrice].offers[offersKey].who]);\n                        tokenBalance[msg.sender][symbolNameIndex] += volumePriceFromAddress;\n                        tokens[symbolNameIndex].sellBook[currentSellPrice].offers[offersKey].amount = 0;\n                        etherBalance[tokens[symbolNameIndex].sellBook[currentSellPrice].offers[offersKey].who] += totalAvailableEther;\n                        tokens[symbolNameIndex].sellBook[currentSellPrice].offersKey++;\n                        SellOrderFulfilled(symbolNameIndex, volumePriceFromAddress,currentSellPrice, offersKey);\n                        amountNecessary -= volumePriceFromAddress;\n                    } else {\n                        require(tokens[symbolNameIndex].sellBook[currentSellPrice].offers[offersKey].amount > amountNecessary);\n                        requiredEtherAmount = amountNecessary * currentSellPrice;\n                        require(etherBalance[msg.sender] - requiredEtherAmount <= etherBalance[msg.sender]);\n                        etherBalance[msg.sender] -= requiredEtherAmount;\n                        require(etherBalance[tokens[symbolNameIndex].sellBook[currentSellPrice].offers[offersKey].who] + requiredEtherAmount >= etherBalance[tokens[symbolNameIndex].sellBook[currentSellPrice].offers[offersKey].who]);\n                        tokens[symbolNameIndex].sellBook[currentSellPrice].offers[offersKey].amount -= amountNecessary;\n                        etherBalance[tokens[symbolNameIndex].sellBook[currentSellPrice].offers[offersKey].who] += requiredEtherAmount;\n                        tokenBalance[msg.sender][symbolNameIndex] += amountNecessary;\n                        amountNecessary = 0;\n                        SellOrderFulfilled(symbolNameIndex, amountNecessary,currentSellPrice, offersKey);\n                    }\n\n                    if((offersKey == tokens[symbolNameIndex].sellBook[currentSellPrice].offersLength) && \n                       ( tokens[symbolNameIndex].sellBook[currentSellPrice].offers[offersKey].amount == 0) ) {\n                           tokens[symbolNameIndex].amountSellPrices--;\n\n                           if(currentSellPrice == tokens[symbolNameIndex].sellBook[currentSellPrice].higherPrice || tokens[symbolNameIndex].buyBook[currentSellPrice].higherPrice == 0 ) {\n                                tokens[symbolNameIndex].currentSellPrice = 0;\n                           } else {\n                               tokens[symbolNameIndex].currentSellPrice = tokens[symbolNameIndex].sellBook[currentSellPrice].higherPrice;\n                               tokens[symbolNameIndex].sellBook[tokens[symbolNameIndex].buyBook[currentSellPrice].higherPrice].lowerPrice = 0;\n                           }\n                    }\n                    offersKey++;\n                }\n                currentSellPrice = tokens[symbolNameIndex].currentSellPrice;\n            } // end of outer  while  loop \n\n            if(amountNecessary > 0) {\n                buyToken(_symbolName,_priceInWei,amountNecessary);\n            }\n        }\n    }  //end of function\n\n    function sellToken(string _symbolName, uint _priceInWei, uint _amount) {\n        uint8 symbolNameIndex = getSymbolIndex(_symbolName);\n        uint requiredEtherAmount = 0;\n        uint totalAvailableEther = 0;\n\n        if(tokens[symbolNameIndex].amountBuyPrices == 0 || tokens[symbolNameIndex].currentBuyPrice < _priceInWei) {\n            requiredEtherAmount = _amount * _priceInWei;\n            require(requiredEtherAmount >= _amount);\n            require(requiredEtherAmount >= _priceInWei);\n            require(tokenBalance[msg.sender][symbolNameIndex] >= _amount);\n            require(tokenBalance[msg.sender][symbolNameIndex] - _amount >= 0);\n            require((etherBalance[msg.sender] + requiredEtherAmount) >= etherBalance[msg.sender]);\n            tokenBalance[msg.sender][symbolNameIndex] -= _amount;\n            addSellOffer( symbolNameIndex, _priceInWei,_amount, msg.sender);\n            LimitSellOrderCreated(symbolNameIndex, msg.sender, _amount, _priceInWei, tokens[symbolNameIndex].sellBook[_priceInWei].offersLength);\n        } else {\n           \n            uint currentBuyPrice = tokens[symbolNameIndex].currentBuyPrice;\n            uint amountNecessary = _amount;\n            uint offersKey;\n\n            while(currentBuyPrice >= _priceInWei && amountNecessary > 0) {\n                offersKey = tokens[symbolNameIndex].buyBook[currentBuyPrice].offersKey;\n                while(offersKey <= tokens[symbolNameIndex].buyBook[currentBuyPrice].offersLength && amountNecessary > 0) {\n\n                    uint volumePriceFromAddress = tokens[symbolNameIndex].buyBook[currentBuyPrice].offers[offersKey].amount;\n\n                    if (volumePriceFromAddress <= amountNecessary) {\n                        totalAvailableEther = volumePriceFromAddress * currentBuyPrice;\n                        require(tokenBalance[msg.sender][symbolNameIndex] >= volumePriceFromAddress);\n                        tokenBalance[msg.sender][symbolNameIndex] -= volumePriceFromAddress;\n                        require((tokenBalance[msg.sender][symbolNameIndex] - volumePriceFromAddress) >= 0);\n                        require((tokenBalance[tokens[symbolNameIndex].buyBook[currentBuyPrice].offers[offersKey].who][symbolNameIndex] + totalAvailableEther) > (tokenBalance[tokens[symbolNameIndex].buyBook[currentBuyPrice].offers[offersKey].who][symbolNameIndex]));\n                        require((etherBalance[msg.sender] + totalAvailableEther) >= etherBalance[msg.sender]);\n                        tokenBalance[tokens[symbolNameIndex].buyBook[currentBuyPrice].offers[offersKey].who][symbolNameIndex] += volumePriceFromAddress;\n                        tokens[symbolNameIndex].buyBook[currentBuyPrice].offers[offersKey].amount = 0;\n                        etherBalance[msg.sender] += totalAvailableEther;\n                        tokens[symbolNameIndex].buyBook[currentBuyPrice].offersKey++;\n                        SellOrderFulfilled(symbolNameIndex, volumePriceFromAddress,currentBuyPrice, offersKey);\n                        amountNecessary -= volumePriceFromAddress;\n                    } else {\n                        require(volumePriceFromAddress - amountNecessary > 0);\n                        requiredEtherAmount = amountNecessary * currentBuyPrice;\n                        require(tokenBalance[msg.sender][symbolNameIndex] >= amountNecessary);\n                        tokenBalance[msg.sender][symbolNameIndex] -= amountNecessary;\n                        require(tokenBalance[msg.sender][symbolNameIndex] >= amountNecessary);\n                        require(etherBalance[msg.sender] + requiredEtherAmount >= etherBalance[msg.sender] );\n                        require(tokenBalance[tokens[symbolNameIndex].buyBook[currentBuyPrice].offers[offersKey].who][symbolNameIndex] + amountNecessary >= tokenBalance[tokens[symbolNameIndex].buyBook[currentBuyPrice].offers[offersKey].who][symbolNameIndex]);\n                        tokens[symbolNameIndex].buyBook[currentBuyPrice].offers[offersKey].amount -= amountNecessary;\n                        etherBalance[msg.sender] += amountNecessary;\n                        tokenBalance[tokens[symbolNameIndex].buyBook[currentBuyPrice].offers[offersKey].who][symbolNameIndex] += amountNecessary;\n                        SellOrderFulfilled(symbolNameIndex, amountNecessary,currentBuyPrice, offersKey);\n                        amountNecessary = 0;\n                    }\n\n                    if((offersKey == tokens[symbolNameIndex].buyBook[currentBuyPrice].offersLength) && \n                       (tokens[symbolNameIndex].buyBook[currentBuyPrice].offers[offersKey].amount == 0)) {\n                           tokens[symbolNameIndex].amountBuyPrices--;\n\n                           if(currentBuyPrice == tokens[symbolNameIndex].buyBook[currentBuyPrice].lowerPrice || tokens[symbolNameIndex].buyBook[currentBuyPrice].lowerPrice == 0 ) {\n                                tokens[symbolNameIndex].currentBuyPrice = 0;\n                           } else {\n                               tokens[symbolNameIndex].currentBuyPrice = tokens[symbolNameIndex].buyBook[currentBuyPrice].lowerPrice;\n                               tokens[symbolNameIndex].buyBook[tokens[symbolNameIndex].buyBook[currentBuyPrice].lowerPrice].higherPrice =  tokens[symbolNameIndex].currentBuyPrice;\n                           }\n                    }\n                    offersKey++;\n                }\n                currentBuyPrice = tokens[symbolNameIndex].currentBuyPrice;\n            } // end of outer  while  loop \n\n            if(amountNecessary > 0) {\n                sellToken(_symbolName,_priceInWei,amountNecessary);\n            }\n        }\n    }  //end of function\n}",
  "sourcePath": "/home/shishir/Work/learning/TradingExchange/contracts/Exchange.sol",
  "compiler": {
    "name": "solc",
    "version": "0.4.18+commit.9cf6e910.Emscripten.clang"
  },
  "schemaVersion": "1.0.1",
  "updatedAt": "2018-01-26T01:49:21.330Z"
}