{
  "contractName": "Exchange",
  "abi": [
    {
      "constant": true,
      "inputs": [
        {
          "name": "_symbolName",
          "type": "string"
        }
      ],
      "name": "getBuyOrderBook",
      "outputs": [
        {
          "name": "",
          "type": "uint256[]"
        },
        {
          "name": "",
          "type": "uint256[]"
        }
      ],
      "payable": false,
      "stateMutability": "view",
      "type": "function"
    },
    {
      "constant": false,
      "inputs": [
        {
          "name": "_symbolName",
          "type": "string"
        },
        {
          "name": "_amount",
          "type": "uint256"
        }
      ],
      "name": "depositToken",
      "outputs": [],
      "payable": true,
      "stateMutability": "payable",
      "type": "function"
    },
    {
      "constant": false,
      "inputs": [
        {
          "name": "amountInWei",
          "type": "uint256"
        }
      ],
      "name": "withdrawEther",
      "outputs": [],
      "payable": false,
      "stateMutability": "nonpayable",
      "type": "function"
    },
    {
      "constant": false,
      "inputs": [
        {
          "name": "_symbolName",
          "type": "string"
        }
      ],
      "name": "getSymbolIndex",
      "outputs": [
        {
          "name": "",
          "type": "uint8"
        }
      ],
      "payable": false,
      "stateMutability": "nonpayable",
      "type": "function"
    },
    {
      "constant": true,
      "inputs": [
        {
          "name": "_symbolName",
          "type": "string"
        }
      ],
      "name": "getSellOrderBook",
      "outputs": [
        {
          "name": "",
          "type": "uint256[]"
        },
        {
          "name": "",
          "type": "uint256[]"
        }
      ],
      "payable": false,
      "stateMutability": "view",
      "type": "function"
    },
    {
      "constant": true,
      "inputs": [
        {
          "name": "symbolName",
          "type": "string"
        }
      ],
      "name": "hasToken",
      "outputs": [
        {
          "name": "",
          "type": "bool"
        }
      ],
      "payable": false,
      "stateMutability": "view",
      "type": "function"
    },
    {
      "constant": false,
      "inputs": [],
      "name": "depositEther",
      "outputs": [],
      "payable": true,
      "stateMutability": "payable",
      "type": "function"
    },
    {
      "constant": false,
      "inputs": [
        {
          "name": "_symbolName",
          "type": "string"
        },
        {
          "name": "_tokenAddress",
          "type": "address"
        }
      ],
      "name": "addToken",
      "outputs": [
        {
          "name": "",
          "type": "bool"
        }
      ],
      "payable": false,
      "stateMutability": "nonpayable",
      "type": "function"
    },
    {
      "constant": false,
      "inputs": [
        {
          "name": "_symbolName",
          "type": "string"
        }
      ],
      "name": "getTokenAddress",
      "outputs": [
        {
          "name": "",
          "type": "address"
        }
      ],
      "payable": false,
      "stateMutability": "nonpayable",
      "type": "function"
    },
    {
      "constant": false,
      "inputs": [
        {
          "name": "_symbolName",
          "type": "string"
        },
        {
          "name": "_amount",
          "type": "uint256"
        }
      ],
      "name": "withdrawToken",
      "outputs": [],
      "payable": false,
      "stateMutability": "nonpayable",
      "type": "function"
    },
    {
      "constant": false,
      "inputs": [
        {
          "name": "_symbolName",
          "type": "string"
        },
        {
          "name": "_isSellOrder",
          "type": "bool"
        },
        {
          "name": "_priceInWei",
          "type": "uint256"
        },
        {
          "name": "_offerKey",
          "type": "uint256"
        }
      ],
      "name": "cancelOrder",
      "outputs": [],
      "payable": false,
      "stateMutability": "nonpayable",
      "type": "function"
    },
    {
      "constant": false,
      "inputs": [
        {
          "name": "symbolNameIndex",
          "type": "uint8"
        },
        {
          "name": "_priceInWei",
          "type": "uint256"
        },
        {
          "name": "_amount",
          "type": "uint256"
        },
        {
          "name": "who",
          "type": "address"
        }
      ],
      "name": "addBuyOrder",
      "outputs": [],
      "payable": false,
      "stateMutability": "nonpayable",
      "type": "function"
    },
    {
      "anonymous": false,
      "inputs": [
        {
          "indexed": false,
          "name": "_symbolIndex",
          "type": "uint256"
        },
        {
          "indexed": false,
          "name": "_symbolName",
          "type": "string"
        },
        {
          "indexed": false,
          "name": "_timestamp",
          "type": "uint256"
        }
      ],
      "name": "TokenAddedToExchange",
      "type": "event"
    },
    {
      "anonymous": false,
      "inputs": [
        {
          "indexed": true,
          "name": "_from",
          "type": "address"
        },
        {
          "indexed": false,
          "name": "_amount",
          "type": "uint256"
        },
        {
          "indexed": false,
          "name": "_timestamp",
          "type": "uint256"
        }
      ],
      "name": "EtherReceived",
      "type": "event"
    },
    {
      "anonymous": false,
      "inputs": [
        {
          "indexed": true,
          "name": "_to",
          "type": "address"
        },
        {
          "indexed": false,
          "name": "_amount",
          "type": "uint256"
        },
        {
          "indexed": false,
          "name": "_timestamp",
          "type": "uint256"
        }
      ],
      "name": "EtherWithdrawn",
      "type": "event"
    },
    {
      "anonymous": false,
      "inputs": [
        {
          "indexed": true,
          "name": "_from",
          "type": "address"
        },
        {
          "indexed": true,
          "name": "_symbolIndex",
          "type": "uint256"
        },
        {
          "indexed": false,
          "name": "_amount",
          "type": "uint256"
        },
        {
          "indexed": false,
          "name": "_timestamp",
          "type": "uint256"
        }
      ],
      "name": "TokenReceived",
      "type": "event"
    },
    {
      "anonymous": false,
      "inputs": [
        {
          "indexed": true,
          "name": "_to",
          "type": "address"
        },
        {
          "indexed": true,
          "name": "_symbolIndex",
          "type": "uint256"
        },
        {
          "indexed": false,
          "name": "_amount",
          "type": "uint256"
        },
        {
          "indexed": false,
          "name": "_timestamp",
          "type": "uint256"
        }
      ],
      "name": "TokenWithdrawn",
      "type": "event"
    },
    {
      "anonymous": false,
      "inputs": [
        {
          "indexed": true,
          "name": "_symbolIndex",
          "type": "uint256"
        },
        {
          "indexed": false,
          "name": "_priceInWei",
          "type": "uint256"
        },
        {
          "indexed": false,
          "name": "_orderKey",
          "type": "uint256"
        }
      ],
      "name": "BuyOrderCanceled",
      "type": "event"
    },
    {
      "anonymous": false,
      "inputs": [
        {
          "indexed": true,
          "name": "_symbolIndex",
          "type": "uint256"
        },
        {
          "indexed": true,
          "name": "_who",
          "type": "address"
        },
        {
          "indexed": false,
          "name": "_amount",
          "type": "uint256"
        },
        {
          "indexed": false,
          "name": "_priceInWei",
          "type": "uint256"
        },
        {
          "indexed": false,
          "name": "_orderKey",
          "type": "uint256"
        }
      ],
      "name": "LimitBuyOrderCreated",
      "type": "event"
    },
    {
      "anonymous": false,
      "inputs": [
        {
          "indexed": true,
          "name": "_symbolIndex",
          "type": "uint256"
        },
        {
          "indexed": true,
          "name": "_who",
          "type": "address"
        },
        {
          "indexed": false,
          "name": "_amount",
          "type": "uint256"
        },
        {
          "indexed": false,
          "name": "_priceInWei",
          "type": "uint256"
        },
        {
          "indexed": false,
          "name": "_orderKey",
          "type": "uint256"
        }
      ],
      "name": "LimitSellrderCreated",
      "type": "event"
    },
    {
      "anonymous": false,
      "inputs": [
        {
          "indexed": true,
          "name": "_symbolIndex",
          "type": "uint256"
        },
        {
          "indexed": false,
          "name": "_priceInWei",
          "type": "uint256"
        },
        {
          "indexed": false,
          "name": "_orderKey",
          "type": "uint256"
        }
      ],
      "name": "SellOrderCanceled",
      "type": "event"
    },
    {
      "anonymous": false,
      "inputs": [
        {
          "indexed": true,
          "name": "_symbolIndex",
          "type": "uint256"
        },
        {
          "indexed": false,
          "name": "_amount",
          "type": "uint256"
        },
        {
          "indexed": false,
          "name": "_priceInWei",
          "type": "uint256"
        },
        {
          "indexed": false,
          "name": "_orderKey",
          "type": "uint256"
        }
      ],
      "name": "SellOrderFulfilled",
      "type": "event"
    }
  ],
  "bytecode": "0x6060604052341561000f57600080fd5b611fa48061001e6000396000f3006060604052600436106100ba576000357c0100000000000000000000000000000000000000000000000000000000900463ffffffff16806303bc4a27146100bf57806333ad57e4146101b95780633bed33ce1461021457806367fee8b414610237578063728ff029146102ae5780638ea00818146103a857806398ea5fca1461041d578063b0b22c2c14610427578063c4091236146104bb578063c97a413a14610558578063d1a3b025146105be578063d4f126ac14610638575b600080fd5b34156100ca57600080fd5b61011a600480803590602001908201803590602001908080601f0160208091040260200160405190810160405280939291908181526020018383808284378201915050505050509190505061068f565b604051808060200180602001838103835285818151815260200191508051906020019060200280838360005b83811015610161578082015181840152602081019050610146565b50505050905001838103825284818151815260200191508051906020019060200280838360005b838110156101a3578082015181840152602081019050610188565b5050505090500194505050505060405180910390f35b610212600480803590602001908201803590602001908080601f01602080910402602001604051908101604052809392919081815260200183838082843782019150505050505091908035906020019091905050610890565b005b341561021f57600080fd5b6102356004808035906020019091905050610bac565b005b341561024257600080fd5b610292600480803590602001908201803590602001908080601f01602080910402602001604051908101604052809392919081815260200183838082843782019150505050505091905050610ce0565b604051808260ff1660ff16815260200191505060405180910390f35b34156102b957600080fd5b610309600480803590602001908201803590602001908080601f01602080910402602001604051908101604052809392919081815260200183838082843782019150505050505091905050610ec1565b604051808060200180602001838103835285818151815260200191508051906020019060200280838360005b83811015610350578082015181840152602081019050610335565b50505050905001838103825284818151815260200191508051906020019060200280838360005b83811015610392578082015181840152602081019050610377565b5050505090500194505050505060405180910390f35b34156103b357600080fd5b610403600480803590602001908201803590602001908080601f016020809104026020016040519081016040528093929190818152602001838380828437820191505050505050919050506110c3565b604051808215151515815260200191505060405180910390f35b6104256110e1565b005b341561043257600080fd5b6104a1600480803590602001908201803590602001908080601f0160208091040260200160405190810160405280939291908181526020018383808284378201915050505050509190803573ffffffffffffffffffffffffffffffffffffffff16906020019091905050611215565b604051808215151515815260200191505060405180910390f35b34156104c657600080fd5b610516600480803590602001908201803590602001908080601f016020809104026020016040519081016040528093929190818152602001838380828437820191505050505050919050506113ff565b604051808273ffffffffffffffffffffffffffffffffffffffff1673ffffffffffffffffffffffffffffffffffffffff16815260200191505060405180910390f35b341561056357600080fd5b6105bc600480803590602001908201803590602001908080601f01602080910402602001604051908101604052809392919081815260200183838082843782019150505050505091908035906020019091905050611452565b005b34156105c957600080fd5b610636600480803590602001908201803590602001908080601f0160208091040260200160405190810160405280939291908181526020018383808284378201915050505050509190803515159060200190919080359060200190919080359060200190919050506116e2565b005b341561064357600080fd5b61068d600480803560ff1690602001909190803590602001909190803590602001909190803573ffffffffffffffffffffffffffffffffffffffff16906020019091905050611a95565b005b610697611ebf565b61069f611ebf565b60006106a9611ebf565b6106b1611ebf565b60008060008060006106c28b610ce0565b9750600160008960ff1660ff168152602001908152602001600020600401546040518059106106ee5750595b90808252806020026020018201604052509650600160008960ff1660ff1681526020019081526020016000206004015460405180591061072b5750595b90808252806020026020018201604052509550600160008960ff1660ff168152602001908152602001600020600301549450600093506000600160008a60ff1660ff16815260200190815260200160002060020154111561087d575b600160008960ff1660ff168152602001908152602001600020600201548511151561087c578487858151811015156107bb57fe5b906020019060200201818152505060009250600160008960ff1660ff16815260200190815260200160002060080160008681526020019081526020016000209150816003015490505b816004015481101561083a5781600201600082815260200190815260200160002060000154830192508080600101915050610804565b82868581518110151561084957fe5b906020019060200201818152505081600001548514156108685761087c565b816000015494508380600101945050610787565b5b8686995099505050505050505050915091565b600080600061089e85610ce0565b9250600160008460ff1660ff16815260200190815260200160002060000160009054906101000a900473ffffffffffffffffffffffffffffffffffffffff169150600073ffffffffffffffffffffffffffffffffffffffff168273ffffffffffffffffffffffffffffffffffffffff161415151561091b57600080fd5b819050600115158173ffffffffffffffffffffffffffffffffffffffff166323b872dd3330886000604051602001526040518463ffffffff167c0100000000000000000000000000000000000000000000000000000000028152600401808473ffffffffffffffffffffffffffffffffffffffff1673ffffffffffffffffffffffffffffffffffffffff1681526020018373ffffffffffffffffffffffffffffffffffffffff1673ffffffffffffffffffffffffffffffffffffffff1681526020018281526020019350505050602060405180830381600087803b1515610a0157600080fd5b6102c65a03f11515610a1257600080fd5b505050604051805190501515141515610a2a57600080fd5b600360003373ffffffffffffffffffffffffffffffffffffffff1673ffffffffffffffffffffffffffffffffffffffff16815260200190815260200160002060008460ff1660ff1681526020019081526020016000205484600360003373ffffffffffffffffffffffffffffffffffffffff1673ffffffffffffffffffffffffffffffffffffffff16815260200190815260200160002060008660ff1660ff168152602001908152602001600020540110151515610ae757600080fd5b83600360003373ffffffffffffffffffffffffffffffffffffffff1673ffffffffffffffffffffffffffffffffffffffff16815260200190815260200160002060008560ff1660ff168152602001908152602001600020600082825401925050819055508260ff163373ffffffffffffffffffffffffffffffffffffffff167fdef422a44f208b3108bd6fee4f92da9332641cdc3e5885e36ffc8b72d5498dc18642604051808381526020018281526020019250505060405180910390a35050505050565b80600260003373ffffffffffffffffffffffffffffffffffffffff1673ffffffffffffffffffffffffffffffffffffffff1681526020019081526020016000205410151515610bfa57600080fd5b34600260003373ffffffffffffffffffffffffffffffffffffffff1673ffffffffffffffffffffffffffffffffffffffff168152602001908152602001600020600082825403925050819055503373ffffffffffffffffffffffffffffffffffffffff166108fc829081150290604051600060405180830381858888f193505050501515610c8757600080fd5b3373ffffffffffffffffffffffffffffffffffffffff167fd5ca65e1ec4f4864fea7b9c5cb1ec3087a0dbf9c74641db3f6458edf445c40513442604051808381526020018281526020019250505060405180910390a250565b600080600090505b6000809054906101000a900460ff1660ff168160ff161015610eb65773__Utils_________________________________6313d1995084600160008560ff1660ff1681526020019081526020016000206001016000604051602001526040518363ffffffff167c0100000000000000000000000000000000000000000000000000000000028152600401808060200180602001838103835285818151815260200191508051906020019080838360005b83811015610db3578082015181840152602081019050610d98565b50505050905090810190601f168015610de05780820380516001836020036101000a031916815260200191505b50838103825284818154600181600116156101000203166002900481526020019150805460018160011615610100020316600290048015610e625780601f10610e3757610100808354040283529160200191610e62565b820191906000526020600020905b815481529060010190602001808311610e4557829003601f168201915b505094505050505060206040518083038186803b1515610e8157600080fd5b6102c65a03f41515610e9257600080fd5b5050506040518051905015610ea957809150610ebb565b8080600101915050610ce8565b600091505b50919050565b610ec9611ebf565b610ed1611ebf565b6000610edb611ebf565b610ee3611ebf565b6000806000806000610ef48b610ce0565b9750600160008960ff1660ff16815260200190815260200160002060070154604051805910610f205750595b90808252806020026020018201604052509650600160008960ff1660ff16815260200190815260200160002060070154604051805910610f5d5750595b90808252806020026020018201604052509550600160008960ff1660ff168152602001908152602001600020600501549450600093506000600160008a60ff1660ff1681526020019081526020016000206005015411156110b0575b600160008960ff1660ff16815260200190815260200160002060060154851115156110af57848785815181101515610fed57fe5b906020019060200201818152505060009250600160008960ff1660ff16815260200190815260200160002060090160008681526020019081526020016000209150816003015490505b816004015481101561106c5781600201600082815260200190815260200160002060000154830192508080600101915050611036565b82868581518110151561107b57fe5b906020019060200201818152505060008260000154141561109b576110af565b816000015494508380600101945050610fb9565b5b8686995099505050505050505050915091565b6000806110cf83610ce0565b905060008160ff161415915050919050565b600260003373ffffffffffffffffffffffffffffffffffffffff1673ffffffffffffffffffffffffffffffffffffffff1681526020019081526020016000205434600260003373ffffffffffffffffffffffffffffffffffffffff1673ffffffffffffffffffffffffffffffffffffffff16815260200190815260200160002054011015151561117057600080fd5b34600260003373ffffffffffffffffffffffffffffffffffffffff1673ffffffffffffffffffffffffffffffffffffffff168152602001908152602001600020600082825401925050819055503373ffffffffffffffffffffffffffffffffffffffff167f1d57945c1033a96907a78f6e0ebf6a03815725dac25f33cc806558670344ac883442604051808381526020018281526020019250505060405180910390a2565b6000611220836110c3565b15151561122c57600080fd5b6000809054906101000a900460ff1660ff1660016000809054906101000a900460ff160160ff1611151561125f57600080fd5b60008081819054906101000a900460ff168092919060010191906101000a81548160ff021916908360ff1602179055505082600160008060009054906101000a900460ff1660ff1660ff16815260200190815260200160002060010190805190602001906112ce929190611ed3565b5081600160008060009054906101000a900460ff1660ff1660ff16815260200190815260200160002060000160006101000a81548173ffffffffffffffffffffffffffffffffffffffff021916908373ffffffffffffffffffffffffffffffffffffffff1602179055507f10696c7897adafa7ed4e0a759d05692156133e1f6f2b30d90ef244a5503b1df66000809054906101000a900460ff168442604051808460ff16815260200180602001838152602001828103825284818151815260200191508051906020019080838360005b838110156113b957808201518184015260208101905061139e565b50505050905090810190601f1680156113e65780820380516001836020036101000a031916815260200191505b5094505050505060405180910390a16001905092915050565b60008061140b83610ce0565b9050600160008260ff1660ff16815260200190815260200160002060000160009054906101000a900473ffffffffffffffffffffffffffffffffffffffff16915050919050565b600080600061146085610ce0565b9250600160008460ff1660ff16815260200190815260200160002060000160009054906101000a900473ffffffffffffffffffffffffffffffffffffffff169150600073ffffffffffffffffffffffffffffffffffffffff168273ffffffffffffffffffffffffffffffffffffffff16141515156114dd57600080fd5b83600360003373ffffffffffffffffffffffffffffffffffffffff1673ffffffffffffffffffffffffffffffffffffffff16815260200190815260200160002060008560ff1660ff168152602001908152602001600020541015151561154257600080fd5b83600360003373ffffffffffffffffffffffffffffffffffffffff1673ffffffffffffffffffffffffffffffffffffffff16815260200190815260200160002060008560ff1660ff16815260200190815260200160002060008282540392505081905550819050600115158173ffffffffffffffffffffffffffffffffffffffff1663a9059cbb33876000604051602001526040518363ffffffff167c0100000000000000000000000000000000000000000000000000000000028152600401808373ffffffffffffffffffffffffffffffffffffffff1673ffffffffffffffffffffffffffffffffffffffff16815260200182815260200192505050602060405180830381600087803b151561165857600080fd5b6102c65a03f1151561166957600080fd5b50505060405180519050151514151561168157600080fd5b8260ff163373ffffffffffffffffffffffffffffffffffffffff167f51160a0419cace6072cf0f4d65c046252a02c00f35ba16855ec4442577c6e5688642604051808381526020018281526020019250505060405180910390a35050505050565b6000806000806000806116f48a610ce0565b9550881561188d57600160008760ff1660ff168152602001908152602001600020600901600089815260200190815260200160002094503373ffffffffffffffffffffffffffffffffffffffff1685600201600089815260200190815260200160002060010160009054906101000a900473ffffffffffffffffffffffffffffffffffffffff1673ffffffffffffffffffffffffffffffffffffffff1614151561179d57600080fd5b846002016000888152602001908152602001600020600001549350600360003373ffffffffffffffffffffffffffffffffffffffff1673ffffffffffffffffffffffffffffffffffffffff16815260200190815260200160002060008760ff1660ff168152602001908152602001600020549250828484011015151561182257600080fd5b83830192506000856002016000898152602001908152602001600020600001819055508560ff167fffac5f4941e92bc6814610a825eeff0ae9bb4a17d47c0e2353c6889b2b550fb88989604051808381526020018281526020019250505060405180910390a2611a89565b600160008760ff1660ff168152602001908152602001600020600801600089815260200190815260200160002091503373ffffffffffffffffffffffffffffffffffffffff1682600201600089815260200190815260200160002060010160009054906101000a900473ffffffffffffffffffffffffffffffffffffffff1673ffffffffffffffffffffffffffffffffffffffff1614151561192e57600080fd5b8782600201600089815260200190815260200160002060000154029050600260003373ffffffffffffffffffffffffffffffffffffffff1673ffffffffffffffffffffffffffffffffffffffff1681526020019081526020016000205481600260003373ffffffffffffffffffffffffffffffffffffffff1673ffffffffffffffffffffffffffffffffffffffff1681526020019081526020016000205401101515156119da57600080fd5b80600260003373ffffffffffffffffffffffffffffffffffffffff1673ffffffffffffffffffffffffffffffffffffffff168152602001908152602001600020600082825401925050819055506000826002016000898152602001908152602001600020600001819055508560ff167f5f2fdca15d8ab2ad3f590066add3054471b3603ca44a66f12e124e9c97ec19558989604051808381526020018281526020019250505060405180910390a25b50505050505050505050565b6000806000806000600160008a60ff1660ff1681526020019081526020016000206008016000898152602001908152602001600020945060408051908101604052808881526020018773ffffffffffffffffffffffffffffffffffffffff16815250856002016000876004015481526020019081526020016000206000820151816000015560208201518160010160006101000a81548173ffffffffffffffffffffffffffffffffffffffff021916908373ffffffffffffffffffffffffffffffffffffffff160217905550905050600185600401541415611eb45760018560030181905550600160008a60ff1660ff16815260200190815260200160002060040160008154809291906001019190505550600160008a60ff1660ff168152602001908152602001600020600201549350600160008a60ff1660ff1681526020019081526020016000206003015492506000831480611bf357508783115b15611ca9576000841415611c3a5787600160008b60ff1660ff1681526020019081526020016000206002018190555087856000018190555060008560010181905550611c83565b87600160008b60ff1660ff168152602001908152602001600020600801600085815260200190815260200160002060010181905550828560000181905550600085600101819055505b87600160008b60ff1660ff16815260200190815260200160002060030181905550611eb3565b87841015611d1e5787600160008b60ff1660ff16815260200190815260200160002060080160008681526020019081526020016000206000018190555087856000018190555083856001018190555087600160008b60ff1660ff16815260200190815260200160002060020181905550611eb2565b600160008a60ff1660ff168152602001908152602001600020600201549150600090505b600082118015611d50575080155b15611eb1578782108015611d93575087600160008b60ff1660ff168152602001908152602001600020600801600084815260200190815260200160002060000154115b15611e7957818560010181905550600160008a60ff1660ff168152602001908152602001600020600801600083815260200190815260200160002060000154856000018190555087600160008b60ff1660ff1681526020019081526020016000206008016000600160008d60ff1660ff16815260200190815260200160002060080160008681526020019081526020016000206000015481526020019081526020016000206001018190555087600160008b60ff1660ff168152602001908152602001600020600801600084815260200190815260200160002060000181905550600190505b600160008a60ff1660ff1681526020019081526020016000206008016000838152602001908152602001600020600101549150611d42565b5b5b5b505050505050505050565b602060405190810160405280600081525090565b828054600181600116156101000203166002900490600052602060002090601f016020900481019282601f10611f1457805160ff1916838001178555611f42565b82800160010185558215611f42579182015b82811115611f41578251825591602001919060010190611f26565b5b509050611f4f9190611f53565b5090565b611f7591905b80821115611f71576000816000905550600101611f59565b5090565b905600a165627a7a72305820c9ef4d7c6550645eefe6a84c3a78345368938de0c6eff725312230ba924e9ac10029",
  "source": "pragma solidity ^ 0.4 .18;\n\nimport \"./library/Utils.sol\";\nimport \"./ERC20/ERC20.sol\";\n\ncontract Exchange {\n\n    struct Offer {\n        uint amount;\n        address who;\n    }\n\n    struct OrderBook {\n        uint higherPrice;\n        uint lowerPrice;\n\n        mapping(uint => Offer) offers;\n\n        uint offersKey;\n        uint offersLength;\n    }\n\n    struct Token {\n\n        address tokenContract;\n        string symbolName;\n\n        uint currentBuyPrice;\n        uint lowestBuyPrice;\n        uint amountBuyPrices;\n\n        uint currentSellPrice;\n        uint highestSellPrice;\n        uint amountSellPrices;\n\n        mapping(uint => OrderBook) buyBook;\n\n        mapping(uint => OrderBook) sellBook;\n    }\n\n    uint8 symbolNameIndex;\n    mapping(uint8 => Token) tokens;\n\n    // Balance Management \n\n    mapping(address => uint) etherBalance;\n    mapping(address => mapping(uint8 => uint)) tokenBalance;\n\n\n    // -------------------------------Token Management  -------------------------------\n\n    function addToken(string _symbolName, address _tokenAddress) returns(bool) {\n        require(!hasToken(_symbolName));\n        require(symbolNameIndex + 1 > symbolNameIndex);\n        symbolNameIndex++;\n\n        tokens[symbolNameIndex].symbolName = _symbolName;\n        tokens[symbolNameIndex].tokenContract = _tokenAddress;\n        TokenAddedToExchange(symbolNameIndex, _symbolName, now);\n        return true;\n    }\n\n    event TokenAddedToExchange(uint _symbolIndex, string _symbolName, uint _timestamp);\n\n\n    function getTokenAddress(string _symbolName) public returns(address) {\n        uint8 indexValue = getSymbolIndex(_symbolName);\n        return tokens[indexValue].tokenContract;\n    }\n\n    function getSymbolIndex(string _symbolName) public returns(uint8) {\n        for (var index = 0; index < symbolNameIndex; index++) {\n            if (Utils.stringsEqual(_symbolName, tokens[index].symbolName)) {\n                return index;\n            }\n        }\n        return 0;\n    }\n\n    function hasToken(string symbolName) constant returns(bool) {\n        uint8 index = getSymbolIndex(symbolName);\n        return (index != 0);\n    }\n\n    // -------------------------------Balance Management  -------------------------------\n\n    function depositEther() payable {\n        require((etherBalance[msg.sender] + msg.value) >= etherBalance[msg.sender]);\n        etherBalance[msg.sender] += msg.value;\n        EtherReceived(msg.sender, msg.value, now);\n    }\n\n    function withdrawEther(uint amountInWei) {\n        require((etherBalance[msg.sender]) >= amountInWei);\n        etherBalance[msg.sender] -= msg.value;\n        msg.sender.transfer(amountInWei);\n        EtherWithdrawn(msg.sender, msg.value, now);\n    }\n\n    function depositToken(string _symbolName, uint _amount) payable {\n        uint8 symbolNameIndex = getSymbolIndex(_symbolName);\n        address tokenAddress = tokens[symbolNameIndex].tokenContract;\n        require(tokenAddress != address(0));\n        ERC20 currentToken = ERC20(tokenAddress);\n        require(currentToken.transferFrom(msg.sender, address(this), _amount) == true);\n        require((tokenBalance[msg.sender][symbolNameIndex] + _amount) >= tokenBalance[msg.sender][symbolNameIndex]);\n        tokenBalance[msg.sender][symbolNameIndex] += _amount;\n        TokenReceived(msg.sender, symbolNameIndex, _amount, now);\n    }\n\n    function withdrawToken(string _symbolName, uint _amount) {\n        uint8 symbolNameIndex = getSymbolIndex(_symbolName);\n        address tokenAddress = tokens[symbolNameIndex].tokenContract;\n        require(tokenAddress != address(0));\n        require((tokenBalance[msg.sender][symbolNameIndex]) >= _amount);\n        tokenBalance[msg.sender][symbolNameIndex] -= _amount;\n        ERC20 currentToken = ERC20(tokenAddress);\n        require(currentToken.transfer(msg.sender, _amount) == true);\n        TokenWithdrawn(msg.sender, symbolNameIndex, _amount, now);\n    }\n    //events declaration \n\n    event EtherReceived(address indexed _from, uint _amount, uint _timestamp);\n    event EtherWithdrawn(address indexed _to, uint _amount, uint _timestamp);\n\n    event TokenReceived(address indexed _from, uint indexed _symbolIndex, uint _amount, uint _timestamp);\n    event TokenWithdrawn(address indexed _to, uint indexed _symbolIndex, uint _amount, uint _timestamp);\n\n\n    // -------------------------------Order Management  -------------------------------\n\n    //events declaration \n    // buy events\n    event BuyOrderCanceled(uint indexed _symbolIndex, uint _priceInWei, uint _orderKey);\n    //event BuyOrderFulfilled(uint indexed _symbolIndex,uint _amount, uint _priceInWei, uint _orderKey);\n    event LimitBuyOrderCreated(uint indexed _symbolIndex, address indexed _who, uint _amount, uint _priceInWei, uint _orderKey);\n    // sell events\n    event LimitSellrderCreated(uint indexed _symbolIndex, address indexed _who, uint _amount, uint _priceInWei, uint _orderKey);\n    event SellOrderCanceled(uint indexed _symbolIndex, uint _priceInWei, uint _orderKey);\n    event SellOrderFulfilled(uint indexed _symbolIndex, uint _amount, uint _priceInWei, uint _orderKey);\n\n    function getBuyOrderBook(string _symbolName) constant returns(uint[], uint[]) {\n        uint8 symbolNameIndex = getSymbolIndex(_symbolName);\n\n        uint[] memory priceBuyArray = new uint[](tokens[symbolNameIndex].amountBuyPrices);\n        uint[] memory volumeBuyArray = new uint[](tokens[symbolNameIndex].amountBuyPrices);\n\n        uint currentLowestOffer = tokens[symbolNameIndex].lowestBuyPrice;\n\n        uint counter = 0;\n\n        if (tokens[symbolNameIndex].currentBuyPrice > 0) {\n            while (currentLowestOffer <= tokens[symbolNameIndex].currentBuyPrice) {\n                priceBuyArray[counter] = currentLowestOffer;\n                uint volumeAtThisPrice = 0;\n                var currentBuyBook = tokens[symbolNameIndex].buyBook[currentLowestOffer];\n                uint offersKey = currentBuyBook.offersKey;\n\n                while (offersKey < currentBuyBook.offersLength) {\n                    volumeAtThisPrice += currentBuyBook.offers[offersKey].amount;\n                    offersKey++;\n                }\n                volumeBuyArray[counter] = volumeAtThisPrice;\n\n                if (currentLowestOffer == currentBuyBook.higherPrice) {\n                    break;\n                } else {\n                    currentLowestOffer = currentBuyBook.higherPrice;\n                }\n                counter++;\n            }\n        }\n        return (priceBuyArray, volumeBuyArray);\n    }\n\n    function getSellOrderBook(string _symbolName) constant returns(uint[], uint[]) {\n        uint8 symbolNameIndex = getSymbolIndex(_symbolName);\n\n        uint[] memory priceSellArray = new uint[](tokens[symbolNameIndex].amountSellPrices);\n        uint[] memory volumeSellArray = new uint[](tokens[symbolNameIndex].amountSellPrices);\n\n        uint currentSellOffer = tokens[symbolNameIndex].currentSellPrice;\n\n        uint counter = 0;\n\n        if (tokens[symbolNameIndex].currentSellPrice > 0) {\n            while (currentSellOffer <= tokens[symbolNameIndex].highestSellPrice) {\n                priceSellArray[counter] = currentSellOffer;\n                uint volumeAtThisPrice = 0;\n                var currentSellBook = tokens[symbolNameIndex].sellBook[currentSellOffer];\n                uint offersKey = currentSellBook.offersKey;\n\n                while (offersKey < currentSellBook.offersLength) {\n                    volumeAtThisPrice += currentSellBook.offers[offersKey].amount;\n                    offersKey++;\n                }\n                volumeSellArray[counter] = volumeAtThisPrice;\n\n                if (currentSellBook.higherPrice == 0) {\n                    break;\n                } else {\n                    currentSellOffer = currentSellBook.higherPrice;\n                }\n                counter++;\n            }\n        }\n        return (priceSellArray, volumeSellArray);\n    }\n\n    function cancelOrder(string _symbolName, bool _isSellOrder, uint _priceInWei, uint _offerKey) {\n        uint8 symbolNameIndex = getSymbolIndex(_symbolName);\n\n        if (_isSellOrder) {\n            var currentSellBook = tokens[symbolNameIndex].sellBook[_priceInWei];\n            require(currentSellBook.offers[_offerKey].who == msg.sender);\n            var tokenAmount = currentSellBook.offers[_offerKey].amount;\n            var currentTokenBalance = tokenBalance[msg.sender][symbolNameIndex];\n            require(currentTokenBalance + tokenAmount >= currentTokenBalance);\n\n            currentTokenBalance += tokenAmount;\n            currentSellBook.offers[_offerKey].amount = 0;\n            SellOrderCanceled(symbolNameIndex, _priceInWei, _offerKey);\n\n        } else {\n            var currentBuyBook = tokens[symbolNameIndex].buyBook[_priceInWei];\n            require(currentBuyBook.offers[_offerKey].who == msg.sender);\n            var etherRefund = currentBuyBook.offers[_offerKey].amount * _priceInWei;\n            require(etherBalance[msg.sender] + etherRefund >= etherBalance[msg.sender]);\n            etherBalance[msg.sender] += etherRefund;\n            currentBuyBook.offers[_offerKey].amount = 0;\n            BuyOrderCanceled(symbolNameIndex, _priceInWei, _offerKey);\n        }\n    }\n\n    function addBuyOrder(uint8 symbolNameIndex, uint _priceInWei, uint _amount, address who) {\n        var currentBuyBook = tokens[symbolNameIndex].buyBook[_priceInWei];\n        currentBuyBook.offers[currentBuyBook.offersLength] = Offer(_amount, who);\n\n        if (currentBuyBook.offersLength == 1) {\n            currentBuyBook.offersKey = 1;\n            tokens[symbolNameIndex].amountBuyPrices++;\n            uint currentBuyPrice = tokens[symbolNameIndex].currentBuyPrice;\n            uint lowestBuyPrice = tokens[symbolNameIndex].lowestBuyPrice;\n\n            if ((lowestBuyPrice == 0) || (lowestBuyPrice > _priceInWei)) {\n                if (currentBuyPrice == 0) {\n                    tokens[symbolNameIndex].currentBuyPrice = _priceInWei;\n                    currentBuyBook.higherPrice = _priceInWei;\n                    currentBuyBook.lowerPrice = 0;\n                } else {\n                    tokens[symbolNameIndex].buyBook[lowestBuyPrice].lowerPrice = _priceInWei;\n                    currentBuyBook.higherPrice = lowestBuyPrice;\n                    currentBuyBook.lowerPrice = 0;\n                }\n                tokens[symbolNameIndex].lowestBuyPrice = _priceInWei;\n            } else if (currentBuyPrice < _priceInWei) {\n                tokens[symbolNameIndex].buyBook[currentBuyPrice].higherPrice = _priceInWei;\n                currentBuyBook.higherPrice = _priceInWei;\n                currentBuyBook.lowerPrice = currentBuyPrice;\n                tokens[symbolNameIndex].currentBuyPrice = _priceInWei;\n            } else {\n                uint  buyPrice = tokens[symbolNameIndex].currentBuyPrice ;\n                bool found  = false;\n                while((buyPrice > 0) && (!found) ) {\n                    if(buyPrice <  _priceInWei &&  tokens[symbolNameIndex].buyBook[buyPrice].higherPrice  > _priceInWei ) {\n                        currentBuyBook.lowerPrice = buyPrice;\n                        currentBuyBook.higherPrice = tokens[symbolNameIndex].buyBook[buyPrice].higherPrice;\n                        tokens[symbolNameIndex].buyBook[tokens[symbolNameIndex].buyBook[buyPrice].higherPrice].lowerPrice = _priceInWei;\n                        tokens[symbolNameIndex].buyBook[buyPrice].higherPrice = _priceInWei;\n                        found = true;                        \n                    }\n                    buyPrice = tokens[symbolNameIndex].buyBook[buyPrice].lowerPrice;\n                }\n            }\n        }\n    }\n\n}",
  "sourcePath": "/home/shishir/Work/learning/TradingExchange/contracts/Exchange.sol",
  "compiler": {
    "name": "solc",
    "version": "0.4.18+commit.9cf6e910.Emscripten.clang"
  },
  "schemaVersion": "1.0.1",
  "updatedAt": "2018-01-24T22:14:39.602Z"
}