{
  "contractName": "TokenManagement",
  "abi": [
    {
      "constant": true,
      "inputs": [
        {
          "name": "_symbolName",
          "type": "string"
        }
      ],
      "name": "getSymbolIndex",
      "outputs": [
        {
          "name": "",
          "type": "uint8"
        }
      ],
      "payable": false,
      "stateMutability": "view",
      "type": "function"
    },
    {
      "constant": true,
      "inputs": [
        {
          "name": "symbolName",
          "type": "string"
        }
      ],
      "name": "hasToken",
      "outputs": [
        {
          "name": "",
          "type": "bool"
        }
      ],
      "payable": false,
      "stateMutability": "view",
      "type": "function"
    },
    {
      "constant": false,
      "inputs": [
        {
          "name": "_symbolName",
          "type": "string"
        },
        {
          "name": "_tokenAddress",
          "type": "address"
        }
      ],
      "name": "addToken",
      "outputs": [
        {
          "name": "",
          "type": "bool"
        }
      ],
      "payable": false,
      "stateMutability": "nonpayable",
      "type": "function"
    }
  ],
  "bytecode": "0x6060604052341561000f57600080fd5b6105d98061001e6000396000f300606060405260043610610057576000357c0100000000000000000000000000000000000000000000000000000000900463ffffffff16806367fee8b41461005c5780638ea00818146100d3578063b0b22c2c14610148575b600080fd5b341561006757600080fd5b6100b7600480803590602001908201803590602001908080601f016020809104026020016040519081016040528093929190818152602001838380828437820191505050505050919050506101dc565b604051808260ff1660ff16815260200191505060405180910390f35b34156100de57600080fd5b61012e600480803590602001908201803590602001908080601f016020809104026020016040519081016040528093929190818152602001838380828437820191505050505050919050506103bd565b604051808215151515815260200191505060405180910390f35b341561015357600080fd5b6101c2600480803590602001908201803590602001908080601f0160208091040260200160405190810160405280939291908181526020018383808284378201915050505050509190803573ffffffffffffffffffffffffffffffffffffffff169060200190919050506103db565b604051808215151515815260200191505060405180910390f35b600080600090505b6000809054906101000a900460ff1660ff168160ff1610156103b25773__Utils_________________________________6313d1995084600160008560ff1660ff1681526020019081526020016000206001016000604051602001526040518363ffffffff167c0100000000000000000000000000000000000000000000000000000000028152600401808060200180602001838103835285818151815260200191508051906020019080838360005b838110156102af578082015181840152602081019050610294565b50505050905090810190601f1680156102dc5780820380516001836020036101000a031916815260200191505b5083810382528481815460018160011615610100020316600290048152602001915080546001816001161561010002031660029004801561035e5780601f106103335761010080835404028352916020019161035e565b820191906000526020600020905b81548152906001019060200180831161034157829003601f168201915b505094505050505060206040518083038186803b151561037d57600080fd5b6102c65a03f4151561038e57600080fd5b50505060405180519050156103a5578091506103b7565b80806001019150506101e4565b600091505b50919050565b6000806103c9836101dc565b905060008160ff161415915050919050565b60006103e6836103bd565b1515156103f257600080fd5b6000809054906101000a900460ff1660ff1660016000809054906101000a900460ff160160ff1611151561042557600080fd5b60008081819054906101000a900460ff168092919060010191906101000a81548160ff021916908360ff1602179055505082600160008060009054906101000a900460ff1660ff1660ff1681526020019081526020016000206001019080519060200190610494929190610508565b5081600160008060009054906101000a900460ff1660ff1660ff16815260200190815260200160002060000160006101000a81548173ffffffffffffffffffffffffffffffffffffffff021916908373ffffffffffffffffffffffffffffffffffffffff1602179055506001905092915050565b828054600181600116156101000203166002900490600052602060002090601f016020900481019282601f1061054957805160ff1916838001178555610577565b82800160010185558215610577579182015b8281111561057657825182559160200191906001019061055b565b5b5090506105849190610588565b5090565b6105aa91905b808211156105a657600081600090555060010161058e565b5090565b905600a165627a7a723058208265bb19e720ab2ca4d14e4dcc86eb5446477fff1da38e10bfd0d402a15504f20029",
  "source": "pragma solidity ^0.4.18;\n\nimport \"./library/Utils.sol\";\nimport \"./library/Dataset.sol\";\n\ncontract TokenManagement {\n\n    uint8 symbolNameIndex ; \n    mapping (uint8 => Dataset.Token) tokens;\n\n    function addToken(string _symbolName, address _tokenAddress)  returns (bool){\n        require(!hasToken(_symbolName));\n        require(symbolNameIndex+1 > symbolNameIndex);\n        symbolNameIndex++;\n        tokens[symbolNameIndex].symbolName = _symbolName;\n        tokens[symbolNameIndex].tokenContract = _tokenAddress;\n        return true;\n    }\n\n    function getSymbolIndex(string _symbolName) constant returns (uint8) {\n        for (var index = 0; index < symbolNameIndex; index++) {\n            if (Utils.stringsEqual(_symbolName, tokens[index].symbolName)) {\n                return index;\n            }\n        }\n        return 0;\n    }\n\n    function hasToken(string symbolName) constant returns (bool) {\n        uint8 index = getSymbolIndex(symbolName);\n        return (index != 0);\n    }\n}",
  "sourcePath": "/home/shishir/Work/learning/TradingExchange/contracts/TokenManagement.sol",
  "compiler": {
    "name": "solc",
    "version": "0.4.18+commit.9cf6e910.Emscripten.clang"
  },
  "schemaVersion": "1.0.1",
  "updatedAt": "2018-01-21T05:59:46.481Z"
}