{
  "contractName": "TokenManagement",
  "abi": [
    {
      "constant": true,
      "inputs": [
        {
          "name": "symbolName",
          "type": "string"
        }
      ],
      "name": "hasToken",
      "outputs": [
        {
          "name": "",
          "type": "bool"
        }
      ],
      "payable": false,
      "stateMutability": "view",
      "type": "function"
    },
    {
      "constant": false,
      "inputs": [
        {
          "name": "_symbolName",
          "type": "string"
        },
        {
          "name": "_tokenAddress",
          "type": "address"
        }
      ],
      "name": "addToken",
      "outputs": [
        {
          "name": "",
          "type": "bool"
        }
      ],
      "payable": false,
      "stateMutability": "nonpayable",
      "type": "function"
    }
  ],
  "bytecode": "0x6060604052341561000f57600080fd5b6105578061001e6000396000f30060606040526004361061004c576000357c0100000000000000000000000000000000000000000000000000000000900463ffffffff1680638ea0081814610051578063b0b22c2c146100c6575b600080fd5b341561005c57600080fd5b6100ac600480803590602001908201803590602001908080601f0160208091040260200160405190810160405280939291908181526020018383808284378201915050505050509190505061015a565b604051808215151515815260200191505060405180910390f35b34156100d157600080fd5b610140600480803590602001908201803590602001908080601f0160208091040260200160405190810160405280939291908181526020018383808284378201915050505050509190803573ffffffffffffffffffffffffffffffffffffffff16906020019091905050610178565b604051808215151515815260200191505060405180910390f35b600080610166836102a5565b905060008160ff161415915050919050565b60006101838361015a565b15151561018f57600080fd5b6000809054906101000a900460ff1660ff1660016000809054906101000a900460ff160160ff161115156101c257600080fd5b60008081819054906101000a900460ff168092919060010191906101000a81548160ff021916908360ff1602179055505082600160008060009054906101000a900460ff1660ff1660ff1681526020019081526020016000206001019080519060200190610231929190610486565b5081600160008060009054906101000a900460ff1660ff1660ff16815260200190815260200160002060000160006101000a81548173ffffffffffffffffffffffffffffffffffffffff021916908373ffffffffffffffffffffffffffffffffffffffff1602179055506001905092915050565b600080600090505b6000809054906101000a900460ff1660ff168160ff16101561047b5773__Utils_________________________________6313d1995084600160008560ff1660ff1681526020019081526020016000206001016000604051602001526040518363ffffffff167c0100000000000000000000000000000000000000000000000000000000028152600401808060200180602001838103835285818151815260200191508051906020019080838360005b8381101561037857808201518184015260208101905061035d565b50505050905090810190601f1680156103a55780820380516001836020036101000a031916815260200191505b508381038252848181546001816001161561010002031660029004815260200191508054600181600116156101000203166002900480156104275780601f106103fc57610100808354040283529160200191610427565b820191906000526020600020905b81548152906001019060200180831161040a57829003601f168201915b505094505050505060206040518083038186803b151561044657600080fd5b6102c65a03f4151561045757600080fd5b505050604051805190501561046e57809150610480565b80806001019150506102ad565b600091505b50919050565b828054600181600116156101000203166002900490600052602060002090601f016020900481019282601f106104c757805160ff19168380011785556104f5565b828001600101855582156104f5579182015b828111156104f45782518255916020019190600101906104d9565b5b5090506105029190610506565b5090565b61052891905b8082111561052457600081600090555060010161050c565b5090565b905600a165627a7a723058202b6b3167ef5bd8c4e16770a8aa4ee222b92348c3bf9e45f040ba55cef19bcf110029",
  "source": "pragma solidity ^0.4.18;\n\nimport \"./library/Utils.sol\";\nimport \"./library/Dataset.sol\";\n\ncontract TokenManagement {\n\n    uint8 symbolNameIndex ; \n    mapping (uint8 => Dataset.Token) tokens;\n\n    function addToken(string _symbolName, address _tokenAddress)  returns (bool){\n        require(!hasToken(_symbolName));\n        require(symbolNameIndex+1 > symbolNameIndex);\n        symbolNameIndex++;\n        tokens[symbolNameIndex].symbolName = _symbolName;\n        tokens[symbolNameIndex].tokenContract = _tokenAddress;\n        return true;\n    }\n\n    function getSymbolIndex(string _symbolName) internal returns (uint8) {\n        for (var index = 0; index < symbolNameIndex; index++) {\n            if (Utils.stringsEqual(_symbolName, tokens[index].symbolName)) {\n                return index;\n            }\n        }\n        return 0;\n    }\n\n    function hasToken(string symbolName) constant returns (bool) {\n        uint8 index = getSymbolIndex(symbolName);\n        return (index != 0);\n    }\n}",
  "sourcePath": "/home/shishir/Work/learning/TradingExchange/contracts/TokenManagement.sol",
  "compiler": {
    "name": "solc",
    "version": "0.4.18+commit.9cf6e910.Emscripten.clang"
  },
  "schemaVersion": "1.0.1",
  "updatedAt": "2018-01-21T06:54:33.457Z"
}