{
  "contractName": "TokenManagement",
  "abi": [
    {
      "constant": false,
      "inputs": [
        {
          "name": "_symbolName",
          "type": "string"
        }
      ],
      "name": "getSymbolIndex",
      "outputs": [
        {
          "name": "",
          "type": "uint8"
        }
      ],
      "payable": false,
      "stateMutability": "nonpayable",
      "type": "function"
    },
    {
      "constant": true,
      "inputs": [
        {
          "name": "symbolName",
          "type": "string"
        }
      ],
      "name": "hasToken",
      "outputs": [
        {
          "name": "",
          "type": "bool"
        }
      ],
      "payable": false,
      "stateMutability": "view",
      "type": "function"
    },
    {
      "constant": false,
      "inputs": [
        {
          "name": "_symbolName",
          "type": "string"
        },
        {
          "name": "_tokenAddress",
          "type": "address"
        }
      ],
      "name": "addToken",
      "outputs": [
        {
          "name": "",
          "type": "bool"
        }
      ],
      "payable": false,
      "stateMutability": "nonpayable",
      "type": "function"
    },
    {
      "constant": false,
      "inputs": [
        {
          "name": "_symbolName",
          "type": "string"
        }
      ],
      "name": "getTokenAddress",
      "outputs": [
        {
          "name": "",
          "type": "address"
        }
      ],
      "payable": false,
      "stateMutability": "nonpayable",
      "type": "function"
    },
    {
      "inputs": [],
      "payable": false,
      "stateMutability": "nonpayable",
      "type": "constructor"
    },
    {
      "anonymous": false,
      "inputs": [
        {
          "indexed": false,
          "name": "_symbolIndex",
          "type": "uint256"
        },
        {
          "indexed": false,
          "name": "_symbolName",
          "type": "string"
        },
        {
          "indexed": false,
          "name": "_timestamp",
          "type": "uint256"
        }
      ],
      "name": "TokenAddedToExchange",
      "type": "event"
    }
  ],
  "bytecode": "0x6060604052341561000f57600080fd5b6107918061001e6000396000f300606060405260043610610062576000357c0100000000000000000000000000000000000000000000000000000000900463ffffffff16806367fee8b4146100675780638ea00818146100de578063b0b22c2c14610153578063c4091236146101e7575b600080fd5b341561007257600080fd5b6100c2600480803590602001908201803590602001908080601f01602080910402602001604051908101604052809392919081815260200183838082843782019150505050505091905050610284565b604051808260ff1660ff16815260200191505060405180910390f35b34156100e957600080fd5b610139600480803590602001908201803590602001908080601f01602080910402602001604051908101604052809392919081815260200183838082843782019150505050505091905050610465565b604051808215151515815260200191505060405180910390f35b341561015e57600080fd5b6101cd600480803590602001908201803590602001908080601f0160208091040260200160405190810160405280939291908181526020018383808284378201915050505050509190803573ffffffffffffffffffffffffffffffffffffffff16906020019091905050610483565b604051808215151515815260200191505060405180910390f35b34156101f257600080fd5b610242600480803590602001908201803590602001908080601f0160208091040260200160405190810160405280939291908181526020018383808284378201915050505050509190505061066d565b604051808273ffffffffffffffffffffffffffffffffffffffff1673ffffffffffffffffffffffffffffffffffffffff16815260200191505060405180910390f35b600080600090505b6000809054906101000a900460ff1660ff168160ff16101561045a5773__Utils_________________________________6313d1995084600160008560ff1660ff1681526020019081526020016000206001016000604051602001526040518363ffffffff167c0100000000000000000000000000000000000000000000000000000000028152600401808060200180602001838103835285818151815260200191508051906020019080838360005b8381101561035757808201518184015260208101905061033c565b50505050905090810190601f1680156103845780820380516001836020036101000a031916815260200191505b508381038252848181546001816001161561010002031660029004815260200191508054600181600116156101000203166002900480156104065780601f106103db57610100808354040283529160200191610406565b820191906000526020600020905b8154815290600101906020018083116103e957829003601f168201915b505094505050505060206040518083038186803b151561042557600080fd5b6102c65a03f4151561043657600080fd5b505050604051805190501561044d5780915061045f565b808060010191505061028c565b600091505b50919050565b60008061047183610284565b905060008160ff161415915050919050565b600061048e83610465565b15151561049a57600080fd5b6000809054906101000a900460ff1660ff1660016000809054906101000a900460ff160160ff161115156104cd57600080fd5b60008081819054906101000a900460ff168092919060010191906101000a81548160ff021916908360ff1602179055505082600160008060009054906101000a900460ff1660ff1660ff168152602001908152602001600020600101908051906020019061053c9291906106c0565b5081600160008060009054906101000a900460ff1660ff1660ff16815260200190815260200160002060000160006101000a81548173ffffffffffffffffffffffffffffffffffffffff021916908373ffffffffffffffffffffffffffffffffffffffff1602179055507f10696c7897adafa7ed4e0a759d05692156133e1f6f2b30d90ef244a5503b1df66000809054906101000a900460ff168442604051808460ff16815260200180602001838152602001828103825284818151815260200191508051906020019080838360005b8381101561062757808201518184015260208101905061060c565b50505050905090810190601f1680156106545780820380516001836020036101000a031916815260200191505b5094505050505060405180910390a16001905092915050565b60008061067983610284565b9050600160008260ff1660ff16815260200190815260200160002060000160009054906101000a900473ffffffffffffffffffffffffffffffffffffffff16915050919050565b828054600181600116156101000203166002900490600052602060002090601f016020900481019282601f1061070157805160ff191683800117855561072f565b8280016001018555821561072f579182015b8281111561072e578251825591602001919060010190610713565b5b50905061073c9190610740565b5090565b61076291905b8082111561075e576000816000905550600101610746565b5090565b905600a165627a7a723058207b5db464e43dc0b81eeea525e023321de6f17fc4ff89096508beed6403dc87350029",
  "source": "pragma solidity ^0.4.18;\n\nimport \"./library/Utils.sol\";\nimport \"./library/Dataset.sol\";\n\ncontract TokenManagement {\n    uint8 symbolNameIndex ; \n    mapping (uint8 => Dataset.Token) tokens;\n    event TokenAddedToExchange(uint _symbolIndex,string _symbolName, uint _timestamp);\n\n    function TokenManagement() {\n    }\n\n    function addToken(string _symbolName, address _tokenAddress)  returns (bool){\n        require(!hasToken(_symbolName));\n        require(symbolNameIndex+1 > symbolNameIndex);\n        symbolNameIndex++;\n        tokens[symbolNameIndex].symbolName = _symbolName;\n        tokens[symbolNameIndex].tokenContract = _tokenAddress;\n        TokenAddedToExchange(symbolNameIndex,_symbolName,now);\n        return true;\n    }\n\n    function getSymbolIndex(string _symbolName) public returns (uint8) {\n        for (var index = 0; index < symbolNameIndex; index++) {\n            if (Utils.stringsEqual(_symbolName, tokens[index].symbolName)) {\n                return index;\n            }\n        }\n        return 0;\n    }\n\n    function getTokenAddress(string _symbolName) public returns (address) {\n        uint8 indexValue = getSymbolIndex(_symbolName);\n        return tokens[indexValue].tokenContract;\n    }\n\n\n    // function getToken(string _symbolName) public returns (Dataset.Token) {\n    //     uint8 indexValue = getSymbolIndex(_symbolName);\n    //     return tokens[indexValue];\n    // }\n\n    function hasToken(string symbolName) constant returns (bool) {\n        uint8 index = getSymbolIndex(symbolName);\n        return (index != 0);\n    }\n}\n",
  "sourcePath": "/home/shishir/Work/learning/TradingExchange/contracts/TokenManagement.sol",
  "compiler": {
    "name": "solc",
    "version": "0.4.18+commit.9cf6e910.Emscripten.clang"
  },
  "schemaVersion": "1.0.1",
  "updatedAt": "2018-01-24T09:47:06.316Z"
}