{
  "contractName": "ChainList",
  "abi": [
    {
      "constant": false,
      "inputs": [
        {
          "name": "_id",
          "type": "uint256"
        }
      ],
      "name": "buyArticle",
      "outputs": [],
      "payable": true,
      "stateMutability": "payable",
      "type": "function"
    },
    {
      "constant": false,
      "inputs": [],
      "name": "kill",
      "outputs": [],
      "payable": false,
      "stateMutability": "nonpayable",
      "type": "function"
    },
    {
      "constant": true,
      "inputs": [],
      "name": "getArticlesForSale",
      "outputs": [
        {
          "name": "",
          "type": "uint256[]"
        }
      ],
      "payable": false,
      "stateMutability": "view",
      "type": "function"
    },
    {
      "constant": true,
      "inputs": [],
      "name": "getNumberOfArticles",
      "outputs": [
        {
          "name": "",
          "type": "uint256"
        }
      ],
      "payable": false,
      "stateMutability": "view",
      "type": "function"
    },
    {
      "constant": false,
      "inputs": [
        {
          "name": "_name",
          "type": "string"
        },
        {
          "name": "_description",
          "type": "string"
        },
        {
          "name": "_price",
          "type": "uint256"
        }
      ],
      "name": "sellArticle",
      "outputs": [],
      "payable": false,
      "stateMutability": "nonpayable",
      "type": "function"
    },
    {
      "constant": true,
      "inputs": [
        {
          "name": "",
          "type": "uint256"
        }
      ],
      "name": "articles",
      "outputs": [
        {
          "name": "id",
          "type": "uint256"
        },
        {
          "name": "seller",
          "type": "address"
        },
        {
          "name": "buyer",
          "type": "address"
        },
        {
          "name": "name",
          "type": "string"
        },
        {
          "name": "description",
          "type": "string"
        },
        {
          "name": "price",
          "type": "uint256"
        }
      ],
      "payable": false,
      "stateMutability": "view",
      "type": "function"
    },
    {
      "anonymous": false,
      "inputs": [
        {
          "indexed": true,
          "name": "_id",
          "type": "uint256"
        },
        {
          "indexed": false,
          "name": "_seller",
          "type": "address"
        },
        {
          "indexed": false,
          "name": "_name",
          "type": "string"
        },
        {
          "indexed": false,
          "name": "_description",
          "type": "string"
        },
        {
          "indexed": false,
          "name": "_price",
          "type": "uint256"
        }
      ],
      "name": "sellArticleEvent",
      "type": "event"
    },
    {
      "anonymous": false,
      "inputs": [
        {
          "indexed": true,
          "name": "_id",
          "type": "uint256"
        },
        {
          "indexed": true,
          "name": "_seller",
          "type": "address"
        },
        {
          "indexed": true,
          "name": "_buyer",
          "type": "address"
        },
        {
          "indexed": false,
          "name": "_name",
          "type": "string"
        },
        {
          "indexed": false,
          "name": "_price",
          "type": "uint256"
        }
      ],
      "name": "buyArticleEvent",
      "type": "event"
    }
  ],
  "bytecode": "0x6060604052336000806101000a81548173ffffffffffffffffffffffffffffffffffffffff021916908373ffffffffffffffffffffffffffffffffffffffff160217905550610cd0806100536000396000f300606060405260043610610078576000357c0100000000000000000000000000000000000000000000000000000000900463ffffffff1680631cc4baa81461007d57806341c0e1b5146100955780637f6be3da146100aa57806389da85d314610114578063d26095151461013d578063edcfafe6146101e6575b600080fd5b610093600480803590602001909190505061039c565b005b34156100a057600080fd5b6100a8610684565b005b34156100b557600080fd5b6100bd610719565b6040518080602001828103825283818151815260200191508051906020019060200280838360005b838110156101005780820151818401526020810190506100e5565b505050509050019250505060405180910390f35b341561011f57600080fd5b6101276108b7565b6040518082815260200191505060405180910390f35b341561014857600080fd5b6101e4600480803590602001908201803590602001908080601f0160208091040260200160405190810160405280939291908181526020018383808284378201915050505050509190803590602001908201803590602001908080601f016020809104026020016040519081016040528093929190818152602001838380828437820191505050505050919080359060200190919050506108c1565b005b34156101f157600080fd5b6102076004808035906020019091905050610b71565b604051808781526020018673ffffffffffffffffffffffffffffffffffffffff1673ffffffffffffffffffffffffffffffffffffffff1681526020018573ffffffffffffffffffffffffffffffffffffffff1673ffffffffffffffffffffffffffffffffffffffff16815260200180602001806020018481526020018381038352868181546001816001161561010002031660029004815260200191508054600181600116156101000203166002900480156103045780601f106102d957610100808354040283529160200191610304565b820191906000526020600020905b8154815290600101906020018083116102e757829003601f168201915b50508381038252858181546001816001161561010002031660029004815260200191508054600181600116156101000203166002900480156103875780601f1061035c57610100808354040283529160200191610387565b820191906000526020600020905b81548152906001019060200180831161036a57829003601f168201915b50509850505050505050505060405180910390f35b6000806002541115156103ae57600080fd5b6000821180156103c057506002548211155b15156103cb57600080fd5b60016000838152602001908152602001600020905060008160020160009054906101000a900473ffffffffffffffffffffffffffffffffffffffff1673ffffffffffffffffffffffffffffffffffffffff1614151561042957600080fd5b8060010160009054906101000a900473ffffffffffffffffffffffffffffffffffffffff1673ffffffffffffffffffffffffffffffffffffffff163373ffffffffffffffffffffffffffffffffffffffff161415151561048857600080fd5b80600501543414151561049a57600080fd5b338160020160006101000a81548173ffffffffffffffffffffffffffffffffffffffff021916908373ffffffffffffffffffffffffffffffffffffffff1602179055508060010160009054906101000a900473ffffffffffffffffffffffffffffffffffffffff1673ffffffffffffffffffffffffffffffffffffffff166108fc349081150290604051600060405180830381858888f19350505050151561054157600080fd5b8060020160009054906101000a900473ffffffffffffffffffffffffffffffffffffffff1673ffffffffffffffffffffffffffffffffffffffff168160010160009054906101000a900473ffffffffffffffffffffffffffffffffffffffff1673ffffffffffffffffffffffffffffffffffffffff16837f1022115f3a730bbc8daef9a08e80544240a1578ecba51270e55ab8e72d626e7284600301856005015460405180806020018381526020018281038252848181546001816001161561010002031660029004815260200191508054600181600116156101000203166002900480156106715780601f1061064657610100808354040283529160200191610671565b820191906000526020600020905b81548152906001019060200180831161065457829003601f168201915b5050935050505060405180910390a45050565b6000809054906101000a900473ffffffffffffffffffffffffffffffffffffffff1673ffffffffffffffffffffffffffffffffffffffff163373ffffffffffffffffffffffffffffffffffffffff161415156106df57600080fd5b6000809054906101000a900473ffffffffffffffffffffffffffffffffffffffff1673ffffffffffffffffffffffffffffffffffffffff16ff5b610721610beb565b610729610beb565b600080610734610beb565b600080600254141561076757600060405180591061074f5750595b908082528060200260200182016040525095506108af565b6002546040518059106107775750595b9080825280602002602001820160405250945060009350600192505b6002548311151561083c5760006001600085815260200190815260200160002060020160009054906101000a900473ffffffffffffffffffffffffffffffffffffffff1673ffffffffffffffffffffffffffffffffffffffff16141561082f576001600084815260200190815260200160002060000154858581518110151561081857fe5b906020019060200201818152505083806001019450505b8280600101935050610793565b8360405180591061084a5750595b90808252806020026020018201604052509150600090505b838110156108ab57848181518110151561087857fe5b90602001906020020151828281518110151561089057fe5b90602001906020020181815250508080600101915050610862565b8195505b505050505090565b6000600254905090565b60026000815480929190600101919050555060c06040519081016040528060025481526020013373ffffffffffffffffffffffffffffffffffffffff168152602001600073ffffffffffffffffffffffffffffffffffffffff168152602001848152602001838152602001828152506001600060025481526020019081526020016000206000820151816000015560208201518160010160006101000a81548173ffffffffffffffffffffffffffffffffffffffff021916908373ffffffffffffffffffffffffffffffffffffffff16021790555060408201518160020160006101000a81548173ffffffffffffffffffffffffffffffffffffffff021916908373ffffffffffffffffffffffffffffffffffffffff16021790555060608201518160030190805190602001906109f9929190610bff565b506080820151816004019080519060200190610a16929190610bff565b5060a082015181600501559050506002547f4722c056ee28632ccc9f3ede00991a69b7f290e067ba51a5d9abbdd233e736bf33858585604051808573ffffffffffffffffffffffffffffffffffffffff1673ffffffffffffffffffffffffffffffffffffffff1681526020018060200180602001848152602001838103835286818151815260200191508051906020019080838360005b83811015610ac8578082015181840152602081019050610aad565b50505050905090810190601f168015610af55780820380516001836020036101000a031916815260200191505b50838103825285818151815260200191508051906020019080838360005b83811015610b2e578082015181840152602081019050610b13565b50505050905090810190601f168015610b5b5780820380516001836020036101000a031916815260200191505b50965050505050505060405180910390a2505050565b60016020528060005260406000206000915090508060000154908060010160009054906101000a900473ffffffffffffffffffffffffffffffffffffffff16908060020160009054906101000a900473ffffffffffffffffffffffffffffffffffffffff1690806003019080600401908060050154905086565b602060405190810160405280600081525090565b828054600181600116156101000203166002900490600052602060002090601f016020900481019282601f10610c4057805160ff1916838001178555610c6e565b82800160010185558215610c6e579182015b82811115610c6d578251825591602001919060010190610c52565b5b509050610c7b9190610c7f565b5090565b610ca191905b80821115610c9d576000816000905550600101610c85565b5090565b905600a165627a7a723058201aa63a886384bbac6e7fe17fde4a133576f48d0be55f7e280059892f104e6c4d0029",
  "source": "pragma solidity ^0.4.11;\n\nimport  \"./Owned.sol\";\n\ncontract ChainList is Owned{\n   \nstruct Article {\n        uint id;\n        address seller;\n        address buyer;\n        string name;\n        string description;\n        \n        uint256 price;\n    }\n    \n    mapping(uint => Article) public articles; \n    uint articleCounter;\n\n\n    event sellArticleEvent (\n        uint indexed _id, \n        address  _seller, \n        string _name ,\n        string _description,\n        uint256 _price\n        ) ;\n\n    event buyArticleEvent (\n       uint indexed _id, \n        address indexed _seller, \n        address indexed _buyer, \n        string _name ,\n        uint256 _price) ;\n\n    function sellArticle(string _name, string _description, uint256  _price) public {\n        articleCounter++;\n\n        articles[articleCounter] = Article(\n           articleCounter,  \n           msg.sender,\n           0x0,\n           _name,\n           _description, \n           _price\n        );\n        sellArticleEvent(articleCounter, msg.sender,_name,_description, _price);\n    }\n\n// throw , assert , require and revert consequnces are \n// refund message sender \n// state chnages reverted \n// execution interrupted \n// gas spent \n// throw = legacy , assert = internal errors , require for pre conditions , revert = other business errors \n// function must be marked as payable to receive any value\n    function buyArticle(uint _id) payable public {\n        require(articleCounter > 0);\n        require(_id > 0 && _id <= articleCounter);\n        Article storage article = articles[_id];\n        require(article.buyer == 0x0);\n        require(msg.sender != article.seller);\n        require(msg.value == article.price);\n        article.buyer = msg.sender;\n        article.seller.transfer(msg.value);\n        buyArticleEvent(_id,article.seller,article.buyer,article.name,article.price);\n    }\n\n   function getNumberOfArticles() public constant returns (uint) {\n       return articleCounter;\n   }\n\n   function getArticlesForSale() public constant returns (uint[]) {\n\n       if (articleCounter == 0) {\n           return new uint[](0);\n       }\n\n       uint[] memory articleIds = new uint[](articleCounter);\n       uint numberOfArticlesForSale = 0;\n\n       for (uint index = 1; index <= articleCounter; index++) {\n\n           if (articles[index].buyer == 0x0) {\n               articleIds[numberOfArticlesForSale] = articles[index].id;\n               numberOfArticlesForSale++;\n           }\n       }\n       uint[] memory forSales = new uint[](numberOfArticlesForSale);\n       for (uint i = 0; i < numberOfArticlesForSale; i++) {\n           forSales[i] = articleIds[i];\n       }\n\n       return (forSales);\n   }\n\n   // kill the contract \n   function kill() onlyOwner {\n       selfdestruct(owner);\n   }\n}\n\n",
  "sourcePath": "/home/shishir/Work/learning/ChainList/contracts/ChainList.sol",
  "compiler": {
    "name": "solc",
    "version": "0.4.18+commit.9cf6e910.Emscripten.clang"
  },
  "schemaVersion": "1.0.1",
  "updatedAt": "2018-01-20T01:27:20.322Z"
}